:020000040800F2
:10000000002000202D1800082D1500082F150008CD
:1000100031150008331500083515000800000000F0
:10002000000000000000000000000000371500087C
:1000300039150008000000003B1500083D150008B8
:10004000751800087518000875180008751800085C
:10005000751800087518000875180008751800084C
:10006000751800087518000875180008751800083C
:10007000751800087518000875180008751800082C
:1000800075180008751800087518000800000000B1
:1000900000000000000000000000000075180008CB
:1000A00075180008751800087518000875180008FC
:1000B00075180008751800087518000875180008EC
:1000C0007518000800000000000000007518000806
:1000D00075180008751800087518000875180008CC
:1000E0007518000875180008751800080000000051
:1000F0000000000000000000000000000000000000
:1001000000000000000000000000000000000000EF
:1001100000000000000000007518000875180008B5
:1001200000000000000000000000000000000000CF
:1001300000000000000000000000000000000000BF
:1001400000000000000000000000000000000000AF
:10015000000000000000000000000000000000009F
:10016000000000000000000000000000000000008F
:10017000000000000000000000000000000000007F
:10018000000000000000000000000000000000006F
:10019000000000000000000000000000000000005F
:1001A000000000000000000000000000000000004F
:1001B000000000000000000000000000000000003F
:1001C0000000000000000000000000005FF808F1DF
:1001D00010B5054C237833B9044B13B10448AFF381
:1001E00000800123237010BD1000002000000000DB
:1001F000C018000808B5034B1BB103490348AFF30F
:10020000008008BD0000000014000020C018000895
:10021000D0400B1CD1409C46203AD3401843524258
:1002200063469340184370477047000010B54FF085
:10023000FF320024044BDA601C61DA60DC60FFF7F7
:10024000F3FF204610BD00BF0010024038B50E4B32
:10025000054618784FF47A73B3FBF0F30B4A106835
:10026000B0FBF3F000F07AF8044658B90F2D09D826
:10027000024629464FF0FF3000F03CF8044B204680
:100280001D6038BD012038BD00000020080000209E
:100290000400002008B5032000F01AF80020FFF742
:1002A000D5FF01F0C7F8002008BD0000034A044B49
:1002B00011681B780B441360704700BF34000020A6
:1002C00000000020014B1868704700BF3400002078
:1002D000074A0002D36800F4E06023F4E0631B04E3
:1002E0001B0C43F0BF6343F400330343D3607047F8
:1002F00000ED00E0174B30B5DC68C4F30224C4F114
:100300000703251D042B28BF0423062D4FF00105EC
:1003100098BF002405FA03F303F1FF3388BF033CC1
:100320001940A14005FA04F4013C2240002842EAA9
:1003300001024FEA0212AFBF00F16040064B00F02D
:100340000F00D2B2A5BFD2B200F561401A5480F8B6
:10035000002330BD00ED00E014ED00E00138B0F105
:10036000807F0AD2F021064B064A586082F823109B
:100370000020072298601A6070470120704700BF74
:1003800010E000E000ED00E0044B04281A680CBF08
:1003900042F0040222F004021A60704710E000E00C
:1003A000704708B5FFF7FCFF08BD026803461168F7
:1003B000C06B21F00E011160116821F00101116084
:1003C00001211A6C01FA02F24260002083F8211028
:1003D00083F8200070470000114AD36813F010031F
:1003E00005D01049CB6943F00203CB611023D268DA
:1003F000500706D50B4943F00403CA6942F00102D5
:10040000CA61074AD169C90708D50648C16941F0E0
:100410000401C161D16921F00101D161D36070474C
:100420000020024038000020064B186910F08000C0
:1004300007D0054A5A6002F188325A601869C0F341
:10044000C01070470020024023016745034A002086
:10045000136943F080031361704700BF002002401E
:10046000F8B50646FFF72EFF114C07462546E36810
:10047000D80712D4E368990644BF2023E360EB68F1
:10048000DA0606D4EB69DB0703D4E86810F0040051
:1004900002D0FFF7A1FF0120F8BD731CE7D00EB911
:1004A0000320F8BDFFF70EFFC01B8642DFD2F7E73F
:1004B000002002402DE9F84F1F4C9946237E054647
:1004C000012B0F46904633D001234CF25030237657
:1004D000FFF7C6FF40BB012D03D0022D0CBF022544
:1004E00004250026B246DFF854B0320140464946A2
:1004F000FFF78EFEC4F81CA0DBF8103080B243F08A
:100500000103CBF8103027F816004CF25030FFF7FB
:10051000A7FFDBF8103023F00103CBF8103018B937
:100520000136F3B29D42E0D800232376BDE8F88F70
:100530000220BDE8F88F00BF3800002000200240F4
:100540000022064BDA61064B1A6942F004021A6176
:100550001A6942F040021A61704700BF380000205B
:10056000002002400022064BDA61064B1A6942F075
:1005700002021A6158611A6942F040021A6170471A
:1005800038000020002002402DE9F041234D0746AD
:100590002B7E8846012B3DD0012403682C76022B4C
:1005A0004CF2503013D1FFF75BFF20B10120002344
:1005B0002B76BDE8F081FFF7C3FF4CF25030FFF718
:1005C0004FFF174A136923F004031361EFE7FFF7A6
:1005D00047FF0028EAD14FF0FF33C8F8003020462B
:1005E000BE680F4CFA68BB6803EB82239E42DED2E2
:1005F0003046FFF7B7FF4CF25030FFF731FF236969
:1006000023F00203236110B1C8F80060CFE706F5BC
:100610008066E7E70220BDE8F08100BF38000020D7
:10062000002002402DE9F74F00221646654BDFF807
:10063000A4E1DFF8A4C14FF001080C6808FA06F83D
:1006400008EA0404A0457FD14D68122D00F0AF8068
:1006500000F28880022D00F0A7807CD8002D00F0E9
:100660008E80012D00F09E804FF00F09FF2C93BF6C
:10067000824606F18045083DD0F800B092BFB50033
:10068000D0F804B0AD0009FA05F82BEA080802FA20
:1006900005F588BF00F1040A48EA0505CAF80050CC
:1006A000D1F804A01AF0805F4ED0474D464FAD6997
:1006B00026F0030845F00105BD61BD6908F18048D9
:1006C00005F00105019508F5803806F0030B019D42
:1006D0004FEA8B0BD8F8085009FA0BF925EA0909FB
:1006E0003A4DA84268D005F58065A84266D005F568
:1006F0008065A84264D005F58065A8420CBF03253B
:10070000042505FA0BF545EA0905C8F808501D68E7
:100710001AF4803F14BF2543A5431D605D681AF499
:10072000003F14BF2543A5435D609D681AF4801FF8
:1007300014BF2543A5439D60DD681AF4001F14BF54
:100740002C4325EA0404DC600136102E7FF473AFDD
:1007500003B0BDE8F08F032D22D0112D84D1CA68DB
:10076000043281E71A4FBD4209D012D8DFF86C90ED
:100770004D4504D009F580394D457FF475AF8A6841
:10078000C2B1012A0CBFC0F81080C0F81480082242
:100790006AE77545F3D06545F1D0DFF84490EBE7A3
:1007A000002261E7CA685FE7CA6808325CE7CA6886
:1007B0000C3259E7042257E70025A2E70125A0E7FC
:1007C00002259EE70004014000100240000801409D
:1007D0000000211000003110000032100000111044
:1007E000000022108368194214BF012000207047C6
:1007F0000AB1016170470904FBE7000003682DE9B5
:10080000F341DB07054610D42B689F075ED42B68A5
:10081000190700F195802B685A0700F1BF80EA693B
:10082000002A40F02D81002014E0904C636803F012
:100830000C03042B07D0636803F00C03082B0CD1C6
:100840006368DE0309D523689C03DDD56B68002B44
:10085000DAD1012002B0BDE8F0816B68B3F5803FCA
:1008600010D1236843F480332360FFF72BFD064645
:1008700023689803C8D4FFF725FD801B6428F7D9A7
:100880000320E7E79BB9236823F4803323602368C0
:1008900023F480232360FFF715FD064623689903A0
:1008A000B2D5FFF70FFD801B6428F7D9E8E7B3F551
:1008B000A02F236803D143F480232360D1E723F4DE
:1008C00080332360236823F48023CDE7674C63687B
:1008D00013F00C0F07D0636803F00C03082B10D142
:1008E0006368DA030DD423689B0702D52B69012BBB
:1008F000AFD123686A6923F0F80343EAC203236097
:1009000085E72A695A4B6AB101221A60FFF7DAFCBF
:10091000064623689F07ECD4FFF7D4FC801B02280F
:10092000F7D9ADE71A60FFF7CDFC064623689807B4
:100930007FF56DAFFFF7C6FC801B0228F6D99FE755
:10094000AA694A4C4B4BDAB101221A60FFF7BAFC94
:100950000646636A9B070DD54FF4FA52464B1B6857
:10096000B3FBF2F3019300BF019B5A1E0192002BCF
:10097000F9D150E7FFF7A6FC801B0228E9D97FE7F1
:100980001A60FFF79FFC0646636A9F077FF543AF37
:10099000FFF798FC801B0228F6D971E7334CE36916
:1009A000D80024D40127E36943F08053E361E3696D
:1009B00003F080530093009B304E3368D90518D55F
:1009C000EB68012B26D1236A43F001032362FFF772
:1009D00079FC41F288368046236A9B073FD5002F79
:1009E0003FF41DAFE36923F08053E36117E700276D
:1009F000E2E7336843F480733360FFF763FC8046BB
:100A00003368DA05DCD4FFF75DFCA0EB080064284E
:100A1000F6D935E7ABB9236A41F2883823F00103F0
:100A20002362236A23F004032362FFF74BFC06468C
:100A3000236A9807D3D5FFF745FC801B4045F7D9BB
:100A40001EE7052B236A03D143F004032362BAE7B0
:100A500023F001032362236A23F00403B6E7FFF7C0
:100A600031FCA0EB0800B042B6D909E70010024003
:100A70000000424280044242080000200070004012
:100A8000224C636803F00C03082B3FF4E2AE002312
:100A90001F4E022A33602BD1FFF714FC0746236850
:100AA00099011FD42B6AB3F5803F05D1E26AA9688A
:100AB00022F00F020A43E262696A62680B4322F481
:100AC00074121343636001233360FFF7FBFB054699
:100AD00023689A013FF5A7AEFFF7F4FB401B0228FD
:100AE000F6D9CDE6FFF7EEFBC01B0228D7D9C7E643
:100AF000FFF7E8FB054623689B017FF594AEFFF7FF
:100B0000E1FB401B0228F6D9BAE600BF0010024004
:100B10006000424230B589B06C461D4B03F11005B0
:100B2000224618685968083303C2AB421446F7D10D
:100B3000184B04AC03F110052246186859680833B5
:100B400003C2AB421446F7D113494B6803F00C02C1
:100B5000042A1BD0082A02D0104809B030BDC3F3C4
:100B6000834208A80244DB0312F8202C0BD5CB6A81
:100B70000B4803F00F03504308AA134413F8103C2A
:100B8000B0FBF3F0E9E707485043E6E70448E4E741
:100B9000D8180008E81800080010024000127A0077
:100BA00000366E0100093D000268F8B512F0020F30
:100BB0000546364C05D06368816823F0F0030B438B
:100BC0006360D0071AD42A68510756D4130706D594
:100BD00063682A6923F4605343EAC2036360FFF742
:100BE00099FF63682A4AC3F30313D35CD840294BA7
:100BF00018600020FFF72AFB0020F8BD6868236812
:100C0000012802D19A0305D4F8BD02281BD113F0A4
:100C1000007F39D0636841F2883723F0030318431B
:100C20006060FFF74FFB6B680646012B0ED16368CF
:100C300003F00C03042BC6D0FFF744FB801BB84223
:100C4000F5D90320F8BD13F0020FE2E7022B0FD114
:100C5000636803F00C03082BB5D0FFF733FB801B50
:100C6000B842F5D9EDE7FFF72DFB801BB842E8D875
:100C7000636813F00C0FF6D1A5E76368E96823F405
:100C8000E0630B436360A1E70120F8BD0010024060
:100C90006E1A000808000020014B1868704700BF5A
:100CA00008000020044B054A5B68C3F30223D35CB1
:100CB000034A1068D8407047001002407E1A0008AE
:100CC00008000020044B054A5B68C3F3C223D35CD1
:100CD000034A1068D8407047001002407E1A00088E
:100CE000080000202DE9F04781460568C2682B699D
:100CF000C16923F4405313432B6183680069EA6898
:100D00000343D9F8140022F41642034322F00C02E4
:100D10000B431343EB606B69D9F8182023F440733D
:100D20001343B1F5004F6B617E4B7FD19D424FF075
:100D3000190447D1FFF7C6FF04FB00F3D9F804708C
:100D40004FF064087F00B3FBF7F3B3FBF8F31F0128
:100D5000FFF7B8FF6043D9F804305B00B0FBF3F64F
:100D6000FFF7B0FF6043D9F804305B00B0FBF3F34A
:100D7000B3FBF8F308FB1363DB003233B3FBF8F388
:100D80005B0003F4F876FFF79DFF6043D9F8042079
:100D90005200B0FBF2FAFFF795FF6043D9F8043038
:100DA0005B00B0FBF3F3B3FBF8F308FB13A3DB002A
:100DB0003233B3FBF8F303F007033B443344AB6037
:100DC000BDE8F087FFF76EFF04FB00F3D9F804706D
:100DD0004FF064087F00B3FBF7F3B3FBF8F31F0198
:100DE000FFF760FF6043D9F804305B00B0FBF3F617
:100DF000FFF758FF6043D9F804305B00B0FBF3F312
:100E0000B3FBF8F308FB1363DB003233B3FBF8F3F7
:100E10005B0003F4F876FFF745FF6043D9F8042040
:100E20005200B0FBF2FAFFF73DFFB6E79D424FF0EC
:100E3000190443D1FFF746FF04FB00F3D9F804601F
:100E40004FF06408B600B3FBF6F3B3FBF8F31E01F2
:100E5000FFF738FF6043D9F804309B00B0FBF3F78D
:100E6000FFF730FF6043D9F804309B00B0FBF3F389
:100E7000B3FBF8F308FB13731B013233B3FBF8F336
:100E800003F0F007FFF71EFF6043D9F8042092003B
:100E9000B0FBF2FAFFF716FF6043D9F804309B006D
:100EA000B0FBF3F3B3FBF8F308FB13A31B013233DE
:100EB000B3FBF8F303F00F033B437FE7FFF7F2FECA
:100EC00004FB00F3D9F804604FF06408B600B3FBEC
:100ED000F6F3B3FBF8F31E01FFF7E4FE6043D9F825
:100EE00004309B00B0FBF3F7FFF7DCFE6043D9F85A
:100EF00004309B00B0FBF3F3B3FBF8F308FB137370
:100F00001B013233B3FBF8F303F0F007FFF7CAFE1F
:100F10006043D9F804209200B0FBF2FAFFF7C2FE5A
:100F2000BAE700BF00380140F8B504460E46174640
:100F30001D4621680B6836EA030301D10020F8BD85
:100F40006B1CF7D095B923680320DA6822F4D072BD
:100F5000DA605A6922F001025A61202384F839309C
:100F600084F83A30002384F83830F8BDFFF7AAF946
:100F7000C01B8542DDD2E6E710B5044640B390F8C9
:100F8000393003F0FF021BB980F8382000F0A2FAD4
:100F90002423226884F83930D368204623F4005390
:100FA000D360FFF79FFE236800201A6922F4904265
:100FB0001A615A6922F02A025A61DA6842F4005230
:100FC000DA602023E06384F8393084F83A3010BDC9
:100FD000012010BD2DE9F0411F4690F8393004463C
:100FE000202B0D4690464ED1002949D0002A47D0EB
:100FF00090F83830012B46D0012380F83830002398
:10100000C363212380F83930FFF75CF90646A4F862
:101010002480A4F82680E38C9BB26BB93B46324611
:1010200040212046FFF780FFA8B9202384F838002C
:1010300084F83930BDE8F081E38C3246013B9BB245
:10104000E384A3688021B3F5805F20463B460ED140
:10105000FFF76AFF10B10320BDE8F0812B882268FA
:10106000C3F308035360236943B90235D3E7FFF79D
:101070005BFF0028EFD123682A785A600135CAE760
:101080000120BDE8F0810220BDE8F0812DE9F041AA
:101090001F4690F83A300446202B0D46904651D119
:1010A00000294CD0002A4AD090F83830012B49D082
:1010B000012380F838300023C363222380F83A30BC
:1010C000FFF700F90646A4F82C80A4F82E80E08DE6
:1010D00080B230B9202384F8380084F83A30BDE873
:1010E000F081E38D3246013B9BB2E385A36820216A
:1010F000B3F5805F20463B4612D1FFF715FF10B1D4
:101100000320BDE8F081236822695B6822B9C3F33C
:10111000080325F8023BDAE7DBB225F8013BD6E706
:10112000FFF702FF0028EBD1236821696A1C5B6886
:1011300011B92B701546CAE703F07F03F9E70120C8
:10114000BDE8F0810220BDE8F081036810B5DA68DF
:10115000044622F4F072DA605A6922F001025A6100
:101160005A69110609D55A69006B22F080025A614A
:1011700018B100234363FFF718F923685A69520630
:1011800009D55A69606B22F040025A6118B10023F8
:101190004363FFF70AF900202023E084E085E06341
:1011A00084F83A3084F8393010BD90F8392090F83E
:1011B0003A0010437047000010B586B00446FFF7B0
:1011C00033F900230193029301230393084B01A9F0
:1011D0001B1B9B0A02A804940593FFF7D5F904464C
:1011E000FFF734F9002C14BFFF20002006B010BD1B
:1011F000FFFF01082DE9F843002506460F469046FB
:101200002C46FFF711F9DFF84490454500D024B192
:10121000FFF71CF92046BDE8F8834E4514D8234655
:1012200057F8252031460220FFF744F9002818BF5F
:101230000224336857F8252004369A421CBF44F034
:101240000404E4B20135E0E70124FBE7EEFF010806
:10125000B0B5074B00AF1C68FEF7E8FF054B1B68F5
:1012600083F308882346BD46BDE8B040184700BF59
:1012700004800008008000084FF4803310B590B05F
:10128000079302220E9301244FF4A01306A806949C
:101290000D920F93FFF7B2FA014600B1FEE70F235C
:1012A00001934FF480630390059001A80294049386
:1012B000FFF77AFC044600B1FEE7FFF7EDFC4FF4C0
:1012C0007A73B0FBF3F0FFF749F80420FFF75CF8FE
:1012D000224621464FF0FF30FFF70CF810B010BD4A
:1012E00070B588B0FEF7D6FFFFF7C6FF434B4FF44B
:1012F00081719A69424842F020029A619A690024F9
:1013000002F020020192019A9A6904AD42F00402AF
:101310009A619A6902F004020292029A9A6942F072
:1013200010029A619B69002203F010030393039B50
:10133000FFF75EFA4FF400532946314804930594B1
:101340000694FFF76FF94FF481730493012305931B
:10135000022329462A4806940793FFF763F9294890
:10136000294A2A4B846080E80C000C23C460046185
:101370008461C4614361FFF7FFFD044600B1FEE7ED
:10138000234800F01BF9234800F018F9224800F028
:1013900015F9224800F012F9214800F00FF9052153
:1013A000284600F0FBF820462B5C0130622B08BF7A
:1013B00001240528F8D14FF400511148FFF712FA23
:1013C00098B9184800F0FAF80D4E174D174C012245
:1013D00002213046FFF70CFA284600F0EFF800F043
:1013E000BDF9204600F0EAF8F1E7002CECD11048F6
:1013F00000F0E4F8FFF72CFFE6E700BF0010024022
:10140000001001405800002000380140A06806008C
:10141000F81800081D190008431900087019000881
:1014200095190008C8190008011A00084E1A00088A
:10143000E0190008254B07B59A69032042F0010224
:101440009A619A6902F001020092009ADA6942F008
:101450008052DA61DB6903F080530193019BFEF750
:1014600037FF00226FF00B001146FEF743FF00220A
:101470006FF00A001146FEF73DFF00226FF00900F1
:101480001146FEF737FF00226FF004001146FEF709
:1014900031FF00226FF003001146FEF72BFF002200
:1014A0006FF001001146FEF725FF00224FF0FF30DC
:1014B0001146FEF71FFF064A536823F0E06343F02E
:1014C0000073536003B05DF804FB00BF00100240DE
:1014D000000001407FB50268124B9A421FD103F50C
:1014E00058439A6902A942F480429A619B690E4866
:1014F00003F480430193019B4FF400730293022392
:10150000039303230593FFF78DF84FF48063029351
:10151000002302A9044803930493FFF783F807B05C
:101520005DF804FB00380140000801407047FEE709
:10153000FEE7FEE7FEE770477047704708B5FEF725
:10154000B5FEBDE80840FEF72CBF0000104B1A683E
:1015500042F001021A6059680E4A0A405A601A683D
:1015600022F0847222F480321A601A6822F48022F7
:101570001A605A6822F4FE025A604FF41F029A6001
:101580000022DA624FF00062034B9A60704700BF9E
:10159000001002400000FFF800ED00E008B50A4628
:1015A0004FF47A7301460448FFF770FD002814BF1A
:1015B000FF20002008BD00BF5800002008B50146EC
:1015C00000239AB2885C01330028FAD14FF47A7371
:1015D0000348FFF7FFFC002814BFFF20002008BDD0
:1015E0005800002007B58DF807000B48FFF7DDFD18
:1015F000A02802D10848FFF7A8FD4FF47A73012212
:101600000DF107010448FFF7E5FC002814BFFF2097
:10161000002003B05DF804FB580000202DE9F04FD6
:101620000128ADF20C4D5AD002280BBF4FF4806652
:1016300000260024FF24351D294601A8FFF7AEFF30
:1016400001AB1D440DF10602804615F8029C15F809
:1016500001AC1746002541F22100B11C19448A4211
:1016600040D1DFF8CCB09BF8003033B92D48FFF7FC
:10167000A3FD60BB01238BF80030002C4FD1B8F1E3
:10168000000F18BF0424284B9DF8042019789846B1
:101690009DF80530914218BF44F00204134418BF6E
:1016A000E4B2FF2B18BF44F002044AEA092918BF2C
:1016B000E4B2A9451D4D18BF44F001044FEA96025B
:1016C0003946286818BFE4B2FFF794FDE0B144F052
:1016D0000604E4B220460DF20C4DBDE8F08F8026E2
:1016E0000024A8E712F8013B85EA0325082315F436
:1016F000004F4FEA4505ADB203F1FF3318BF454037
:1017000013F0FF03F3D1AAE7002CE3D198F80030DF
:10171000013388F800302B681E442E60DAE7FF247E
:10172000D8E700BF008000080C0000203000002037
:101730002C00002008B503780133DBB2022B0370C4
:1017400007D91820FFF74EFF1820FFF74BFFFF20A7
:1017500008BD1520FFF746FF002008BD0023F7B5A0
:1017600001212C4D8DF805308DF806302B702A4B59
:101770002A4E19702A492B4B2B4F19609DF80530C2
:101780000BB103B0F0BD01210DF107008DF807305A
:10179000FFF704FF044620B12B786BB94320FFF715
:1017A00021FF9DF80700042828D00ED8431E012BE6
:1017B00011D9002CE2D11AE0012BF2D10DF1060073
:1017C000FFF7B8FF8DF80500EBE71828F1D1FF23EC
:1017D0008DF80530D2E7FFF721FF18B90620FFF793
:1017E00001FFCBE7062802D103238DF806300DF167
:1017F0000600FFF79FFF8DF80500BFE70620FFF703
:10180000F1FE3046FFF7DAFE3846FFF7D7FEFFF766
:101810001FFDB3E72C0000200C000020861A0008F2
:101820000080000830000020E0190008002103E0DB
:101830000B4B5B58435004310A480B4B42189A42F9
:10184000F6D30A4A02E0002342F8043B084B9A42CE
:10185000F9D3FFF77BFE00F00FF8FFF741FD70476B
:10186000A41A000800000020100000201000002032
:1018700098000020FEE7000070B500250C4E0D4CCE
:10188000A41BA410A54209D100F01AF800250A4EA5
:101890000A4CA41BA410A54205D170BD56F82530F2
:1018A00098470135EEE756F8253098470135F2E7BD
:1018B0009C1A00089C1A00089C1A0008A01A00082C
:1018C000F8B500BFF8BC08BC9E467047F8B500BF2D
:0818D000F8BC08BC9E467047FD
:1018D80002030405060708090A0B0C0D0E0F101069
:1018E8000102030405060708090A0B0C0D0E0F1068
:1018F8000A0D3D3D3D3D3D3D3D3D3D3D3D3D3D3D73
:101908003D3D3D3D3D3D3D3D3D3D3D3D3D3D3D3DFF
:101918003D3D0A0D005541525420426F6F746C6F63
:101928006164657220666F722045787072657373A2
:101938004C52532052396D6D0A0D006874747073DF
:101948003A2F2F6769746875622E636F6D2F416C2B
:10195800657373616E64726F41552F457870726557
:1019680073734C52530A0D003D3D3D3D3D3D3D3D99
:101978003D3D3D3D3D3D3D3D3D3D3D3D3D3D3D3D8F
:101988003D3D3D3D3D3D3D3D0A0D0A0D0053656E13
:101998006420276227206F7220686F6C6420646F50
:1019A800776E20627574746F6E20746F206265673D
:1019B800696E20626F6F746C6F616465720A0D00E6
:1019C800446574656374656420627574746F6E2011
:1019D80070726573730A0D004A756D70696E6720C1
:1019E800746F2075736572206170706C69636174BF
:1019F800696F6E2E2E2E0A0D00506C65617365207E
:101A080073656E642061206E65772062696E61720D
:101A1800792066696C65207769746820586D6F64F1
:101A2800656D2070726F746F636F6C20746F2075B2
:101A3800706461746520746865206669726D776189
:101A480072652E0A0D000A0D4661696C65642E2EBA
:101A58002E20506C6561736520747279206167610E
:101A6800696E2E0A0D00000000000000000001024F
:101A780003040607080900000000010203040A0D18
:101A88004669726D7761726520757064617465640A
:041A9800210A0D0012
:041A9C00F501000848
:041AA000D101000868
:101AA400010000001000000000366E01010000007B
:040000050800182DAA
:00000001FF
