:020000040800F2
:10000000F0FF00103DBD0608A1FC0008CDE7040884
:10001000DDBD0608DDBD0608DDBD060800000000E8
:100020000000000000000000000000009DFC00082F
:1000300099FC00080000000095FC00084DD704085A
:10004000DDBD0608DDBD0608DDBD0608DDBD060810
:10005000DDBD0608DDBD060839F9040865FA0408A7
:1000600029FA0408EDF90408B1F9040879A2060890
:1000700069A2060859A2060849A2060835A2060880
:1000800021A206080DA20608DDBD0608DDBD060892
:10009000DDBD0608DDBD0608DDBD060875F90408EE
:1000A0008DC0040815C104087DC004083DC10408C2
:1000B00005C10408F5C00408E5C00408FDAB060846
:1000C00005AC0608F1AB0608F9AB0608DDBD06086D
:1000D000DDBD06085DDB0408A1DA0408E5D90408E3
:1000E000FDF80408DDBD0608311501086DC00408DF
:1000F0009DC004085DC00408C5C00408F9A1060835
:10010000DDBD0608C1600608D5C00408DDBD0608CF
:1001100029D904086DD80408CDDA0308B9DA030830
:10012000E5A10608D1A10608BDA10608A9A10608F7
:1001300095A10608DDBD0608DDBD0608DDBD060883
:10014000DDBD0608DDBD0608DDBD060831F6000888
:1001500081A106086DA1060859A10608B1D70408B7
:10016000E5AB0608EDAB0608DDBD0608DDBD0608FB
:10017000DDBD0608DDBD0608DDBD0608DDBD0608DF
:08018000DDBD0608DDBD060827
:08018800ECB8060001000000C4
:100190000E02010002000000B06300202064002075
:1001A00000000000000A0008140201000500000021
:1001B000743A00202464002000000000020A0008B5
:1001C0001302010004000000E42400202C6400203D
:1001D00000000000080A00081220010011000000C1
:1001E0000C64002030640020000000000C0A0008AD
:1001F0000D100100700000005462002044640020D3
:1002000000000000411C0408090201000100000078
:10021000BC610020B4640020000000001E0A000839
:10022000FD0101002400000060610020B86400208E
:1002300000000000CF9F0408FB0101000100000046
:100240001C5E0020DC64002000000000899405088A
:10025000FC01010009000000E85C0020E0640020CF
:100260000000000091940508F7010100060000005D
:10027000DC5C0020EC64002000000000200A000884
:10028000F901010004000000D85C0020F4640020A3
:100290000000000079A00408160215003F000000CD
:1002A000942D0020F864002000000000B19405089F
:1002B0003400010010000000CC5B002038650020F5
:1002C000000000007D7F020811020100080000000C
:1002D000A45B00204865002000000000260A0008FA
:1002E00012120100040000009C5B002050650020F9
:1002F000000000002E0A000818200100380000004D
:10030000645B002054650020000000001D9E05086D
:10031000000201000B000000E85700208C6500205F
:100320000000000000000000FF11010006000000B6
:10033000945700209865002000000000699405088B
:10034000081203000F000000A0570020A065002045
:1003500000000000E5940508FA0101000300000018
:100360008C510020B065002000000000A994050811
:100370000A8001002A0000005C510020B4650020C2
:1003800000000000B15B02082042010006000000EE
:1003900010510020E065002000000000A17F02084D
:1003A0000610010024000000702D0020E8650020E8
:1003B00000000000619505080C0201000400000027
:1003C000B45000200C66002000000000799405085D
:1003D000110001000C0000003E41002010660020CA
:1003E00000000000DD1B0408FE01010014000000F5
:1003F000E43B00201C660020000000000994050872
:10040000FD070100780000007CB70020F4B7002051
:100410000000000039870108261001000E000000CE
:100420007CB800206CB800200000000061270108A3
:100430000B3001001A00000060B20020BCB80020A0
:1004400000000000340A00081F40010024000000E2
:1004500078B10020D8B8002000000000500A000841
:100460000502010004000000F4B30020FCB80020E5
:1004700000000000740A0008030101000A000000E7
:10048000A4B1002000B9002000000000F5210108FF
:10049000010201000B000000C4C1002000D00020B8
:1004A00000000000C59405081B02010010000000B8
:1004B000ACC100200CD00020000000004D950508C4
:1004C0001B1001000C00000000BB00201CD000200D
:1004D00000000000AD8D010821020100F0000000C5
:1004E00080B9002028D00020000000000DAD0108D8
:1004F00037100100300000001CC1002018D100207E
:1005000000000000780A0008161001000600000034
:10051000B4BE002048D1002000000000A80A000856
:100520002F10010022000000DCCF002050D100205D
:1005300000000000AE0A00082322010010000000A5
:10054000B0BD002074D1002000000000D00A0008D7
:100550001E00010009000000A4BD002084D100207D
:1005600000000000E00A0008052001000C00000067
:100570001CBE002090D1002000000000EC0A000802
:10058000F59101006800000010B900209CD1002006
:1005900000000000C59D010823200100100000009C
:1005A0005EBE002004D2002000000000055C0208AE
:1005B000140001000400000078DD002098DD002018
:1005C00000000000F80A0008012001000C000000F3
:1005D0004CD600209CDD002000000000FC0A000832
:1005E0000E1003009E01000068D30020A8DD00204B
:1005F00000000000A1E50208130001000400000053
:1006000064DA002048DF002000000000080B00082A
:100610000101010004000000B0D200204CDF0020E6
:1006200000000000000000000001010004000000C4
:10063000A8D2002050DF0020000000000C0B0008B2
:100640000201010003000000A4D2002054DF0020BA
:1006500000000000B1A40308220201001C010000F8
:1006600020D8002058DF002000000000D59D05089C
:100670000C200600CC0000002CD5002074E00020E7
:100680000000000075A403081500100070000000B1
:10069000A0ED002020EE002000000000000000007F
:1006A0002A00080060000000B0EC002090EE00205E
:1006B00000000000557F02082C000400100000001C
:1006C00000EF0020F0EE0020000000002D7D020869
:1006D0002B0012002400000034EF002010EF002057
:1006E00000000000017D02082920140078000000AD
:1006F00044EA002058EF0020000000000000000045
:100700001902010010000000E8E90020D0EF0020ED
:1007100000000000B5940508F62101000C0000005F
:1007200034E80020E0EF002000000000100B00087B
:100730001C0202001C000000C8E7002030F000206E
:1007400000000000419F050828300100160000004D
:10075000E4E700204CF0002000000000AD82020819
:10076000041201000200000030E9002064F00020C3
:10077000000000001C0B00080F0201000100000037
:100780002CE9002068F00020000000001E0B00088B
:10079000031201003D000000C0F5002004F6002017
:1007A00000000000200B000825201E002C01000086
:1007B00024F3002044F600200000000000000000A8
:1007C00010100100020000000CF3002070F7002060
:1007D000000000005E0B0008F82101000600000088
:1007E000ECF2002074F7002000000000600B00080D
:1007F000190001000500000040F200207CF70020F5
:1008000000000000660B00081A0001000E00000046
:10081000B0F1002084F70020000000006C0B0008FD
:10082000290201004000000044FA0020ECFF0020F3
:10083000000000007A0B00080A020100140000000A
:1008400078FF00204C0001200000000041A40308B4
:100850000300010001000000D0FF00206000012023
:100860000000000000000000020001000C00000079
:100870009C0301203404012000000000000000005F
:1008800002020100030000002404012040040120B2
:1008900000000000000000000400080080000000CC
:1008A0008008012000090120000000000000000075
:1008B0002802040004000000D40601208009012061
:1008C000000000004995050827020400040000000C
:1008D000D006012084090120000000003D95050894
:1008E0001F02080010000000C00601208809012036
:1008F00000000000219405081A0201003C000000DD
:10090000800601209809012000000000C59E05080E
:10091000381001000100000064040120D409012006
:1009200000000000BA0B00082700010004000000CE
:10093000900A0120980A012000000000BC0B00086A
:100940000B2201003D000000980F0120E01901205A
:1009500000000000C00B00080D1201001400000090
:10096000B0180120201A012000000000000C00082F
:100970001E02010006000000900C0120341A012024
:1009800000000000140C0008070201000200000033
:10099000C81901203C1A0120000000001A0C0008B0
:1009A0001D0202000600000084190120401A0120E7
:1009B0000000000000000000060203000C00000020
:1009C000901901204823012000000000899E05089D
:1009D00039000100050000009C190120542301206A
:1009E00000000000D594050810020100010000007D
:1009F0004458012040580120000000001C0C000851
:100A00000000000000FF00000000010000000001E5
:100A100000000553343035000000000200000000E3
:100A20000000010000000000000001010101FFFFC3
:100A3000FFFF0000AE014A015E012C0164000200CC
:100A4000000001000A019A01001E0A0000020000D5
:100A50000000000000010001000500000102030089
:100A60000000000000000000000000000000000086
:100A7000008007000000000020003200C800D007FE
:100A800096001400320028004C0440060005500077
:100A900014000F00080064000100010005000A00B6
:100AA0000000F40196000F00C409000019000000C6
:100AB0000000000000000000000000000000000036
:100AC0000000000000000000000000000000000026
:100AD000000000000000000000000000FF00000017
:100AE00000050100000000000000000002030000FB
:100AF000000000000000000003000023E803640081
:100B0000040A000114001E00002040309001000083
:100B100000000000010000000202000000000000D0
:100B200000000000000000000000000000000000C5
:100B300000000000000000000000000000000000B5
:100B400000000000000000000000000000000000A5
:100B5000000000000000000000000000010000058F
:100B60000101F40114000000280100007E05EA05DF
:100B7000B4053200E803D0070000000000000000C8
:100B80000000000000000000000000000000000065
:100B90000000000000000000000000000000000055
:100BA0000000000000000000000000000000000045
:100BB0000000000000000000000000002003000012
:100BC0000000000000000000000000000000000025
:100BD0000000000000000000000000000000000015
:100BE0000000000000000000000000000000000005
:100BF00000000000000000000001000000000000F4
:100C000000000000000000000000000000000000E4
:0D0C100000000000000000000000003C009B
:100C1D000403090412010002EF020140830456325D
:100C2D000002010203010000120100020202004055
:100C3D00830440570002010203010000FFFFFFFF84
:100C4D007D0000009CAC0708A4AC07080000000064
:100C5D0021A50308A086010004000000000000008B
:100C6D000000000000000000000000000000000077
:100C7D000000000000000000000000000000000067
:100C8D00000000009CAC0708ACAC07080000000099
:100C9D005DB30408E803000004000000000000003C
:100CAD000000000000000000000000000000000037
:100CBD000000000000000000000000000000000027
:100CCD0000000000B4AC07080000000000000000A8
:100CDD00A5A603087D000000FF0000000000000035
:100CED0000000000000000000000000000000000F7
:100CFD0000000000000000000000000000000000E7
:100D0D00000000004CDE070800000000000000009D
:100D1D0001B103087D000000FF000000000000008D
:100D2D0000000000000000000000000000000000B6
:100D3D0000000000000000000000000000000000A6
:100D4D000000000004C207080000000000000000C1
:100D5D00F9E503087D000000FF0000000000000021
:100D6D000000000000000000000000000000000076
:100D7D000000000000000000000000000000000066
:100D8D0000000000BCAC07080000000000000000DF
:100D9D0085AA0408E803000003000000000000001D
:100DAD000000000000000000000000000000000036
:100DBD000000000000000000000000000000000026
:100DCD0000000000C0AC070800000000000000009B
:100DDD000D3A03081027000003000000000000007A
:100DED0000000000000000000000000000000000F6
:100DFD0000000000000000000000000000000000E6
:100E0D000000000060DA07080000000011790208F8
:100E1D0081E804085F760000050000000000000076
:100E2D0000000000000000000000000000000000B5
:100E3D0000000000000000000000000000000000A5
:100E4D0000000000F0DD07080000000000000000B9
:100E5D002514050810270000010000000000000007
:100E6D000000000000000000000000000000000075
:100E7D000000000000000000000000000000000065
:100E8D0000000000CCAC07080000000000000000CE
:100E9D00719C0408E803000005000000000000003C
:100EAD000000000000000000000000000000000035
:100EBD000000000000000000000000000000000025
:100ECD0000000000D8AC0708000000000000000082
:100EDD00EDAD0308204E00000300000000000000EF
:100EED0000000000000000000000000000000000F5
:100EFD0000000000000000000000000000000000E5
:100F0D0000000000E8AC0708000000000000000031
:100F1D00D5AB0308204E00000300000000000000C8
:100F2D0000000000000000000000000000000000B4
:100F3D0000000000000000000000000000000000A4
:100F4D0000000000F8AC07080000000000000000E1
:100F5D00D5AF0408400D03000300000000000000A1
:100F6D000000000000000000000000000000000074
:100F7D000000000000000000000000000000000064
:100F8D000000000008AD0708000000000000000090
:100F9D00D9630408102700000100000000000000C4
:100FAD000000000000000000000000000000000034
:100FBD000000000000000000000000000000000024
:100FCD000000000010AD0708000000000000000048
:100FDD0085BB010810270000030000000000000081
:100FED0000000000000000000000000000000000F4
:100FFD0000000000000000000000000000000000E4
:10100D000000000014AD0708000000000000000003
:10101D00BD940208A0860100010000000000000040
:10102D0000000000000000000000000000000000B3
:10103D0000000000000000000000000000000000A3
:10104D00000000001CAD07080000000000000000BB
:10105D0005A9040850C300000100000000000000B5
:10106D000000000000000000000000000000000073
:10107D000000000000000000000000000000000063
:10108D000000000024AD0708000000000000000073
:10109D00D5A60408A0860100000000000000000095
:1010AD000000000000000000000000000000000033
:1010BD000000000000000000000000000000000023
:1010CD000000000030AD0708000000000000000027
:1010DD00B5A20408A8610000010000000000000096
:1010ED0000000000000000000000000000000000F3
:1010FD0000000000000000000000000000000000E3
:10110D00000000003CAD07080000000000000000DA
:10111D0079FB0108A086010001000000000000001D
:10112D0000000000000000000000000000000000B2
:10113D0000000000000000000000000000000000A2
:10114D000000000048AD070800000000000000008E
:10115D00C11C0408A00F00000100000000000000E9
:10116D000000000000000000000000000000000072
:10117D000000000000000000000000000000000062
:10118D000000000054AD0708000000000000000042
:10119D00BDE701081027000001000000000000005D
:1011AD000000000000000000000000000000000032
:1011BD000000000000000000000000000000000022
:1011CD000000000060AD07080000000000000000F6
:1011DD00411B0408A00F00000100000000000000EA
:1011ED0000000000000000000000000000000000F2
:1011FD0000000000000000000000000000000000E2
:10120D00000000006CAD07080000000000000000A9
:10121D00D1DF01081A4100000100000000000000AC
:10122D0000000000000000000000000000000000B1
:10123D0000000000000000000000000000000000A1
:10124D000000000070AD0708000000000000000065
:10125D002D220108102700000100000000000000F1
:10126D000000000000000000000000000000000071
:10127D000000000000000000000000000000000061
:10128D00000000007CAD0708000000000000000019
:10129D006D3C020850C3000001000000000000007A
:1012AD000000000000000000000000000000000031
:1012BD000000000000000000000000000000000021
:1012CD000000000080AD07080000000000000000D5
:1012DD00B9300108400D03000000000000000000BF
:1012ED0000000000000000000000000000000000F1
:1012FD0000000000000000000000000000000000E1
:10130D000000000088AD070800000000000000008C
:10131D00FD1B0408400D030000000000000000004C
:10132D0000000000000000000000000000000000B0
:10133D0000000000000000000000000000000000A0
:10134D000000000090AD0708000000000000000044
:10135D0005F3010850C30000030000000000000069
:10136D000000000000000000000000000000000070
:10137D000000000000000000000000000000000060
:10138D00000000009CAD07080000000000000000F8
:10139D0059DF030840420F0000000000000000006C
:1013AD000000000000000000000000000000000030
:1013BD000000000000000000000000000000000020
:1013CD0000000000A8AD07080000000000000000AC
:1013DD00991C040850C3000000000000000000002C
:1013ED0000000000000000000000000000000000F0
:1013FD0000000000000000000000000000000000E0
:10140D000000000015830008118300080D830008FB
:10141D0001830008FD820008098300080583000888
:10142D0000000000058C000889A00008C98B000889
:10143D00D9A10008DD8C00088583000871830008A0
:10144D0055830008CD28010885270108098F00085C
:10145D00818F00080DE10008BDE20008091A01089E
:10146D005D8300084D830008010000000000803FEF
:10147D00094B01080D500108854B0108A51A0108FB
:10148D00891C0108B51A0108D11A01087D1A010835
:10149D006D1A010800000000000000000902200084
:1014AD00010104C0320904000002080650050705B9
:1014BD00810240000007050102400000090264009E
:1014CD00030100C0320904000001030000000921DE
:1014DD00110100012236000705830309000A080BDC
:1014ED0001020202010009040100010202010005CE
:1014FD002400100105240100020424020205240623
:10150D000102070582030800FF09040200020A0018
:10151D0000000705010240000007058102400000A0
:10152D0009024300020100C0320904000001020259
:10153D00010005240010010524010001042402020C
:10154D000524060001070582030800FF09040100B8
:10155D00020A000000070501024000000705810294
:10156D0040000000FF000000140000FF000000001C
:10157D0000000000AA5507010000010000600240B4
:10158D00106002400000000000000000000B000091
:10159D00000000000000000000000000006002409C
:1015AD00286002400100000000000000060C000051
:1015BD00000000000000000000000000006002407C
:1015CD00406002400200000000000000100D00000D
:1015DD00000000000000000000000000006002405C
:1015ED00586002400300000000000000160E0000CD
:1015FD00000000000000000000000000006002403C
:10160D00706002400400000000000000200F000088
:10161D00000000000000000000000000006002401B
:10162D008860024005000000000000002610000048
:10163D0000000000000000000000000000600240FB
:10164D00A060024006000000000000003011000004
:10165D0000000000000000000000000000600240DB
:10166D00B86002400700000000000000362F0000A7
:10167D0000000000000000000000000000640240B7
:10168D00106402400000000000000000003800005F
:10169D000000000000000000000000000064024097
:1016AD00286402400100000000000000063900001F
:1016BD000000000000000000000000000064024077
:1016CD00406402400200000000000000103A0000DB
:1016DD000000000000000000000000000064024057
:1016ED00586402400300000000000000163B00009B
:1016FD000000000000000000000000000064024037
:10170D00706402400400000000000000203C000056
:10171D000000000000000000000000000064024016
:10172D00886402400500000000000000264400000F
:10173D0000000000000000000000000000640240F6
:10174D00A0640240060000000000000030450000CB
:10175D0000000000000000000000000000640240D6
:10176D00B86402400700000000000000364600008B
:10177D00000000000000000000000000AA55050157
:10178D0000002D202D2D202D2D2D2D202D2D2D2DFD
:10179D00000000000000000000000000000000003C
:1017AD0000080000D0FB0608FF1FFF1F05010905FB
:1017BD00A101A100050109300931093209330935AB
:1017CD000934093609371581257F75089508810279
:1017DD0005091901290815002501950875018102D2
:1017ED00C0C0000009022200010100E0320904001E
:1017FD000001030102000921110100012236000739
:10180D0005830309000A0000000000000102030423
:10181D000102030406070809AA550B010000AA5589
:10182D0005010000AA550902000000AA5503009FFA
:10183D0001000000C0120000B4B80020000000003C
:10184D008CB8002000000000010100000000010024
:10185D00E0017EFFFFFFFFFFFF000000FFFFFFFF26
:10186D000801FF01FFFFFFFF01000000E1FF01087C
:10187D000000000000000000180307084257020096
:10188D0000000106425702000000010600000000A2
:10189D000000000000000000F41A0708000000001E
:1018AD000000000000000000AC1B07080000000055
:1018BD000000000000000000581B07080000000099
:1018CD0000000000450A020871D700200101000048
:1018DD001D1E0208D11F020800000000281D070868
:1018ED00691D020800000000000000008C1C0708A4
:1018FD00AD2102080000000000000000441C070894
:10190D002D202D2D202D2D2D2D202D2D2D000000A8
:10191D0000000000000000000000000000000000BA
:10192D00FFFFFFFF39120208000000000000000059
:10193D00841A070801000000FA00000001000000F1
:10194D000100000048D600200000F4010100000055
:10195D0046D600200000F4010100000044D600200E
:10196D000000F4010100000042D600200000F40147
:10197D000100000040D600200000F401010000002D
:10198D003ED600200000F401010000003CD60020EE
:10199D000000F401010000005508020819080208B2
:1019AD0000000000680607082CD600200532010053
:1019BD003AD600206400F4010100000038D6002062
:1019CD006400C409010000002AD60020E803D007F6
:1019DD000100000028D60020E803D0070100000018
:1019ED0026D60020E803D0070100000024D60020F1
:1019FD001E00B80B0100000032D6002005000F00BC
:101A0D000100000034D6002003000A000100000090
:101A1D0022D600201E00F4010100000036D6002061
:101A2D0002000000F406070820D600201400640010
:101A3D00010000002ED600203200E8030100000056
:101A4D001ED600200000C800010000002BD500208C
:101A5D0000C801002AD500200050010029D5002022
:101A6D00005A010027D500200200000000070708DA
:101A7D0020B9070828B90708EA6200200100C40947
:101A8D0000000000E86200200100C4090000000011
:101A9D00E66200200100C40900000000E46200209D
:101AAD000100C40900000000E06200200100C4092B
:101ABD0000000000E26200200100C40900000000E7
:101ACD00DE6200200100C40900000000DC6200207D
:101ADD000100C40900000000CFD2002000C80100A1
:101AED00CED2002000C80100CCD200200000FFFFA4
:101AFD000A000000CAD200200100C8000100000049
:101B0D00C8D200203200307532000000C6D200204D
:101B1D0005820500C4D2002005002C01050000003F
:101B2D00C2D20020055A0500BFD2002000FF0100DF
:101B3D00C1D2002002000000E80F0020BDD200201D
:101B4D0003000000F0FD0608BED2002000FF0100DA
:101B5D00C0D2002002000000E80F0020BCD20020FF
:101B6D0003000000F0FD0608A90702083907020866
:101B7D00000000000C0707085CD60020EE02CA0822
:101B8D00010000005AD6002000C8010064000000CA
:101B9D0059D6002000C801006400000058D600206E
:101BAD000200000018080708B6D200200000803E91
:101BBD0005000000B4D2002080C1803E0500000069
:101BCD00AED200200083007D05000000ACD20020C5
:101BDD0080C1803E05000000A7D2002000FF01005B
:101BED00A0D200206400F401010000009ED200206C
:101BFD006400F401010000009CD200206400F40197
:101C0D00010000009AD200200400000024080708FB
:101C1D0099D20020020000003808070857D3002091
:101C2D000D0000004408070854D300200064010093
:101C3D0052D30020320010270A00000050D300209C
:101C4D000D000000440807084FD300200D000000D0
:101C5D00440807084ED30020020000007C08070846
:101C6D0000000000000000000000000088080708C8
:101C7D0061D6002040000000C00807085FD6002094
:101C8D0003000000C409070860D60020040000000E
:101C9D00D409070859D3002003000000E8090708FC
:101CAD0058D3002003000000E809070818D50020CC
:101CBD00000A010016D500200000E8030100000015
:101CCD0014D500200000E8030100000012D500200B
:101CDD00000A010010D500200000E80301000000FB
:101CED000ED500200000E8030100000006D50020FD
:101CFD000000E803010000000CD500200000E803FF
:101D0D00010000000AD500200000E80301000000DA
:101D1D0008D500200014010026D500200200000087
:101D2D00F809070824D500200000F4010100000087
:101D3D0022D500200000F4010100000020D5002074
:101D4D000000F401010000001ED500200000F40188
:101D5D00010000001CD500200000A00F01000000B4
:101D6D001AD500200000A00F010000000BD60020A6
:101D7D00196401000AD6002002000000040A0708B9
:101D8D0008D60020E803D0070A00000006D6002080
:101D9D00006401000A000000FBD500200064010072
:101DAD00FAD500200064010002D600200064010075
:101DBD000A00000001D60020006401000A000000A6
:101DCD0000D60020006401000A00000005D60020A6
:101DDD0000FF01000A00000004D6002000FF0100F2
:101DED000A00000003D6002000FF01000A000000D9
:101DFD00FFD5002001FF01000A000000FED50020E4
:101E0D0001FF01000A000000FDD5002001FF0100C7
:101E1D000A00000062D300200000F4010100000060
:101E2D0060D300200000A00F010000005ED3002051
:101E3D000000A00F010000005CD300200000A00FE7
:101E4D00010000005AD300200000A00F0100000087
:101E5D00C0D7002000960100BAD7002000C80100AD
:101E6D00B9D7002000640100B8D70020006401003C
:101E7D00B7D7002000640100B6D700200064010030
:101E8D00B5D70020FF080100B4D700200164010080
:101E9D00A10602086506020800000000100A0708E6
:101EAD00BDD7002001320100BCD700200100000089
:101EBD00800A0708BBD7002004000000880A070825
:101ECD00B3D7002000960100B2D7002000640100B6
:101EDD00B0D700201400E80301000000AED70020A9
:101EED00000030750A000000ADD7002000C80100C9
:101EFD00ACD7002000C80100ABD7002000C80100FE
:101F0D00AAD7002000320100BFD70020004B0100EE
:101F1D00BED70020040000009C0A0708A9D70020A6
:101F2D00006401000A000000CED700200000D00799
:101F3D0001000000C9D7002000C80100C8D700204B
:101F4D0000C80100C7D7002000C80100CCD7002071
:101F5D000000D00701000000C6D7002000C8010016
:101F6D00C5D7002000C80100C4D7002000C801005B
:101F7D00CAD700200000D00701000000C3D7002001
:101F8D0000C80100C2D7002000C80100C1D7002041
:101F9D0000C80100490402083104020800000000D5
:101FAD00B00A07084BD30020005A01004AD3002085
:101FBD0000C8010048D30020E803D007010000004D
:101FCD000000000000000000850A02084C0B070805
:101FDD00BBD2002000030100BAD200200003010093
:101FED006D0302082103020800000000A00B070882
:101FFD00E102020899020208000000003C0C0708EB
:10200D00B90302081D12020800000000BC0C0708ED
:10201D00B8D20020010301003109020805090208A8
:10202D00000000002010070811020208B901020883
:10203D00000000009010070859040208412B020807
:10204D0000000000481107085D1602085D0902082E
:10205D0000000000F0110708A904020800000000AC
:10206D00000000008C1207088D0502082D050208DE
:10207D0000000000F012070829060208ED0502080D
:10208D0000000000A8130708455A0208DD060208E3
:10209D0000000000341407081DD6002001060100C1
:1020AD00F1040208BD040208000000003015070805
:1020BD0069590208B913020800000000A0150708AD
:1020CD008D5A020891140208000000000C17070831
:1020DD001CD600200103010001040208D1030208EF
:1020ED0000000000E0170708590B0208000000006F
:1020FD0000000000441807086902020805120208D2
:10210D0000000000E01807080000000000000000BB
:10211D00000000006C1907081107020809150208D4
:10212D0000000000DC19070800000000000000009E
:10213D0000000000F41B070814B200209CFF2C01C6
:10214D0000000000D0D90020E0150C1700000000A1
:10215D00D2D90020020000002C1C070895D20020C7
:10216D0002000000381C070890D2002088136F175A
:10217D000100000092D2002088136F1700000000AC
:10218D002E63002000000000000000002C630020E2
:10219D0000000000000000002A6300200000000085
:1021AD000000000028630020000000000000000077
:1021BD0026630020000000000000000024630020C2
:1021CD000000000000000000AC0D00200000000029
:1021DD00000000001AD20020030000008C1D07082B
:1021ED0088D2002088136F1701000000EAB3002089
:1021FD0088136F170000000099000208000000000E
:10220D00000000009C1D070804D7002001000000FD
:10221D00F01D0708ECB3002001000000FC1D0708AD
:10222D00E2B3002002000000041E070800000000B9
:10223D000000000000000000101E070881000208C9
:10224D000000000000000000AC1E070800000000A8
:10225D000000000000000000001F07080000000043
:10226D000000000000000000701F070894D200203D
:10227D0002000000A81F0708E6B30020E0150C17A8
:10228D0000000000C8E200201CE30020D60101017F
:10229D000001010100FF0100FFFFFFFF0000803F73
:1022AD000000000000000000000000000000000021
:1022BD000000000000000000000000000000000011
:1022CD00000000000000803F000000000000000042
:1022DD00000000000000803F000000000000000032
:1022ED00000000000000803F000000000000000022
:1022FD0000000000010000000000FA430000FA4356
:10230D000000803FFFFFFFFFFF000000E9650408AC
:10231D0000000000000000000000000000000000B0
:10232D003C00012008000000000000002C000120EE
:10233D000800000001000000A00F0000B80B000015
:10234D0002FFFF01614A0108991B0108F9490108C3
:10235D0000000000691A0108E1520108494901080D
:10236D00954501080000000000000000291A010831
:10237D002583000819830008558B0008718B000810
:10238D00398B00081D8B0008018B0008194A0108C4
:10239D00751B01084D49010800000000411A010894
:1023AD00994501081D490108F54401080000000088
:1023BD0000000000351A0108685E0C00FFFFFFFFEA
:1023CD000200000054DA07080000080205030300AC
:1023DD00000000005CDA0708010008020504030094
:1023ED0000000000E8D807080200FE0101100300FC
:1023FD000000000088BC0708030014020003000061
:10240D000000000064DA070804001F020200080043
:10241D00000000006CDA070805001F020201080029
:10242D0000000000FFFF0000FFFFFFFF1A03000088
:10243D00000000000000000000000000000000008F
:10244D000000000000000000040309041201000256
:10245D0000000040830420570002010203010B001D
:10246D00B9A605088DA6050831A605082D960508FF
:10247D004DA60508F1A5050829960508F81A0020AE
:10248D00A9A70508C9A7050899A705080D96050868
:10249D0055A705080DA70508FD950508D41A0020B8
:1024AD00CD9F05081596050811960508099605088E
:1024BD0015A105080596050801960508B07F0708C2
:1024CD007D520108551B01085D51010800000000F7
:1024DD0000000000F5480108054801080000000053
:1024ED0000000000000000001D1A0108B596050847
:1024FD00A996050819A8050835A8050861960508C7
:10250D00FDA70508E1A70508FFFFFFFF1F0000005D
:10251D001C0000001F0000001E0000001F00000036
:10252D001E0000001F0000001F0000001E00000024
:10253D001F0000001E0000001F0000000068214C5D
:10254D0001250000947A07080100000050C3000027
:10255D0001010000508907081C1B002000800202A9
:10256D001F00000053544D202020202050726F6416
:10257D00757420202020202020202020302E303166
:10258D00008002021F00000053544D202020202007
:10259D0050726F6475742020202020202020202070
:1025AD00302E3031F3210108EF210108E721010818
:1025BD00C91F0108213001084D300108792F01088C
:1025CD00DD210108CD210108BD210108AD21010842
:1025DD00511F010801FF0100F4010000FF00000080
:1025ED0000000401000000000000000210000000C7
:1025FD0007000000000000000000000001020304BD
:10260D000607080901000000841B002000000000DF
:10261D0000000000000000000000000000000000AD
:10262D00000000000000000000000000000000009D
:10263D00000000000000000000000000000000008D
:10264D00000000000000000000000000000000007D
:10265D00000000000000000000000000000000006D
:0C266D0000000000000000000000000061
:0828000000C00F0800001008E1
:10800000F0B401292A4C2B4D23684FF0000694BF91
:1080100000270127EE626662A6626763676B47EA24
:1080200042076763EE63EC6B002A38D144F4957421
:10803000EC631C6824F001041C601C68E407FCD499
:10804000490289085960D8601968EAB921F04001ED
:10805000196019498B421DD018494FF47410C8603B
:10806000196841F01E011960596941F08001596198
:10807000196841F00101196022B90E4AD36A43F030
:108080000803D362F0BC704741F0400119600A490F
:108090008B42E1D14FF0746041F8500CE0E744F0BE
:1080A0001A04EC63EC6A44F00804EC62C1E700BF18
:1080B000E81B0020002C014058640240006402408C
:1080C0001148002302461178032902F1060216D056
:1080D0000133062BF7D10D4AD36D052B0ED0591C59
:1080E00003EB4303D16500EB4303032040F2EB3184
:1080F00040F2FF32187059809A807047704703EB46
:10810000430300EB4303F0E7201C0020E81B0020A2
:1081100070B4C3080D4CE25C00F00706B24004EBFB
:10812000D004D2B20020C6F108038B4228BF0B4610
:10813000C3F108052A419840C91A40EA02004FF0ED
:10814000000614F8012FEED170BC7047881C002087
:10815000084AD2E9343199420AD0D118013391F852
:10816000D8100170C3F30A03C2F8D0300120704761
:1081700000207047E81B0020064AD2F8D838D2F811
:10818000DC28934294BF4FF400600020013B9B1A0F
:1081900018447047E81B0020012380F851307047D5
:1081A00007B501A8FFF7D4FF0028FAD09DF8040016
:1081B00003B05DF804FB044BD3E93403984288BF55
:1081C00003F50063181A7047E81B00200120704770
:1081D000024BC3F8E028C3F8E4187047E81B0020FE
:1081E000024BC3F8E828C3F8EC187047E81B0020DE
:1081F0007047704730B4134DD5E934239A4286BF97
:1082000003F50064A21A9A1A0A44B2F5006F13D853
:10821000A9B101444A1E013810F8014FE918824201
:1082200003F1010381F8D840C3F30A03F4D1C5F880
:10823000D430002030BC7047022030BC7047084664
:10824000F8E700BFE81B0020212838B50C4605D010
:1082500022282ED0202813D0002038BD0029FBD0A2
:10826000072AF9D11A4BD3F8F00893F8F41893F8C9
:10827000F52893F8F638206021716271A371EBE75D
:108280000029E9D0072AE7D1114DD5F8E4381BB110
:108290000968D5F8E0089847206821796279A379C0
:1082A000C5F8F00885F8F41885F8F52885F8F6384B
:1082B000D2E70029D0D0022ACED1054AD2F8EC3834
:1082C000002BC9D00988D2F8E8089847C4E700BF56
:1082D000E81B0020024B0020C3F8F808704700BFDD
:1082E000E81B0020044B00200522C3F8F828C3F83F
:1082F000EC08C3F8E4087047E81B0020704700BF93
:10830000704700BF704700BF704700BF704700BF95
:10831000704700BF704700BF042301480B807047BF
:108320008801002010B4074A074B92F8FC08122479
:1083300003F114020C8001280CBF184610465DF8AA
:10834000044B7047E81B00208C0100200048704758
:10835000701C002000487047701C0020034B93F8ED
:108360008400032894BF002001207047E81B0020F0
:10837000034B93F88400032894BF0020012070472A
:10838000E81B0020034B93F88400003818BF01203D
:10839000704700BFE81B0020A0B182680D4B12B1EE
:1083A00007229A7070471978DA6003294FF00400A9
:1083B0000CBF80214FF48071C3E901111A611A7555
:1083C00098707047034B41F2E47101225A545A707D
:1083D000704700BF309600200378022B10D0006950
:1083E00008B9012070470C4B1B78032B0EBF0B4BB9
:1083F00080B24FF6F773984294BF00200120704777
:108400000549436841F650028A58B3EB422F2CBF0E
:1084100001200020704700BF30960020F7FFFF0FBB
:108420000378022B14D030B4104A4368006941F637
:10843000480402F5C2511559096841F63C042B4025
:1084400012595B0A023801FB0030104430BC7047FF
:10845000064B426841F6340141F63000595818582D
:1084600000EB410000EB5220704700BF3096002027
:10847000F8B51A4C94F80039002BFBD159B30144DC
:108480004E1E451ED4F8DC28D4F8D81815F8017F04
:10849000531CC3F30A038B422CBF4FF4006000202F
:1084A000C91A22440144012982F80479C4F8DC384D
:1084B0000FD1012045F0A6F8D4F8D838D4F8DC184C
:1084C0008B4294BF4FF4006200225B1A1344012BCD
:1084D000EFD0B542D6D10020F8BD00BFE81B002088
:1084E000094B0846D3F8F81810B559B1D3F8F83845
:1084F000052B07D1054C002AE36803DD1146FFF781
:10850000B7FFE36810BD00BFE81B0020E02C00208F
:1085100010B590F85010002380F8503079B10B4C12
:10852000D4F8F8286AB1D4F8F828052A0BD1084CF9
:108530003C30E368FFF79CFFE368012010BD012099
:10854000FCE71046FAE71846F8E700BFE81B0020F2
:10855000E02C0020002280F85120D9E790F850202C
:10856000531C0244DBB280F8503082F83C1090F883
:1085700051200AB1132B00D9CAE770472DE9F84FF3
:10858000454B98420ED003F568530833984247D0C4
:10859000424B0020C3E91B00A3F86800A3F8740055
:1085A000BDE8F88F3D4C3E4FDFF800810223236188
:1085B00004F114060025FB6AAB42294605F10105CA
:1085C00003D0D4F8840054F0D5FA94F88830D4F865
:1085D000842086F8243032623046414654F0C0FC94
:1085E00023699D4206F12806E5DB002384F87630F6
:1085F000D4E907032169228BA58CC4F88C3012FBC7
:1086000001F203FB01F3A4F86820618B254AA4F86A
:108610007450C4E91B03A4F86A1062660120BFE726
:108620001E4C1F4F0223236104F114054FF0000B71
:108630004FF4806A4FF040094FF40068FA6A01264F
:108640005A455946B34403D0D4F8840054F092FA02
:10865000D4F8841094F88820296285F824204FF4F7
:1086600000314FF00062C5E90212A5F804A0A5F898
:108670001090A5F80680AE74FFF722FD28466E76AE
:1086800054F0C0FB2269084B45F8283B9345D5DBE5
:1086900084F87660ACE700BF1971EF00E02C002091
:1086A00088010020E4F60608B8F606081940EF0035
:1086B0002DE9F04FCE4DDFF87093DFF87883074651
:1086C0000E4693460FCD4C462DED068B0FC40FCDB5
:1086D0000FC495E807008BB098F89230CDF80CB035
:1086E00084E80700CDE90676042B00F25881DFE824
:1086F00013F0B401560151010500C4019FEDBD8A7C
:10870000DFEDBD8ABD49C9F81C10BD49BD4BBE4A4D
:10871000C9F818100399002918BF134638EE887A53
:10872000F5EE006A86EE87AAC9F82430B74FB84B39
:1087300004930026DFEDB77A9FEDB79A28EE278ADB
:10874000F0EE679A079BB34200F01E81049A12F87C
:10875000013B049208EB0302013392F897405FFA61
:1087600083FB002C00F08C81AC4B002203E0013233
:10877000152A00F0858102EB42015500585CA042A9
:10878000F5D1414491F8B510002900F081812046CF
:1087900043F0DEFE026805928246104643F0C4FEB6
:1087A0009AF8051043F0F4FF0378002B40F068813D
:1087B00008EB05002509013D0321052D80F8F5B0E2
:1087C00080F8F410059A04F00F0000F20B81944C2D
:1087D00004EB450CBCF884C04CFA00FE1EF001030B
:1087E00000F00081012202FA00F0013800EA0C00DA
:1087F000254463F02BF995F89050DFF83CC22844EB
:108800000CEBC0050321A97185F807B05CF83000B6
:108810007D6100F13F4303F57E0304EB93240122C5
:1088200094F898309AF8081003F01F045B09032BA2
:1088300002FA04F200F00281042B00F00981022BFD
:1088400000F00181AB880893B3FA83F3C3F11F03EF
:10885000C3F3CC0200EB820203F00703146A9B000F
:108860000F259D4024EA05041462146A01FA03F3FB
:108870002343136208A9022309930DF079F8DAF86B
:108880000020039B002B00F09280B8F8903000EE9F
:10889000103AB8EEC00AFCEEC07A17EE901A614B9F
:1088A0009A4200F08180A3F580639A427CD003F560
:1088B00080439A4278D003F580639A4274D003F5DE
:1088C00080639A4270D0D8F8202450084FF6FF7386
:1088D000B0FBF1F21A44120CB0FBF2F2039800283C
:1088E00070D0B2FBF1F198F8920004288BB26ED0F0
:1088F00007EE902AF8EE676A66EE887A29EE677AC4
:1089000098F8930006990091A8EEA67A0190514636
:108910003846C7ED027A87ED037A34F0BFFD002EAA
:1089200062DD7B68D9F8382093425FD0012E5BD09E
:10893000D9F85020934259D0022E55D0D9F868204A
:10894000934253D0032E4FD0D9F8802093424DD07C
:10895000042E49D0D9F89820934247D0052E43D011
:10896000D9F8B020934241D0062E3DD0D9F8C82086
:10897000D31A18BF012301360122082E3B747A74E2
:1089800007F118077FF4DEAE27480BB0BDEC068B6D
:10899000BDE8F08F9FED258AF0EE488AB2E69FEDA4
:1089A000248AF0EE488AADE6D8F820048EE7B0EECF
:1089B0004A0A059264F084FAFCEEC07A059A17EE32
:1089C000901A6CE798F892000428194690D107EEA7
:1089D000901A07EE102AF8EE677AF8EE476A67EE0B
:1089E000A97A8BE77B614CE70123C4E70023C2E748
:1089F00010F70608ACC5A737ACC5A73611A6030803
:108A000065A004081DA0030859A004084400001034
:108A1000822D00206F12833A00007A44942D0020AA
:108A2000B8F606080004014010000010282930386C
:108A30006F120339E02C0020002E0020154B1C6C17
:108A400022431A64FEE6134B5C6C22435A64F9E637
:108A5000104B1C6B22431A63F4E69FED0F8A0F4BF9
:108A6000C9F8183000230E4A069301230393C9F86E
:108A70001C200C4BF0EE488A50E69FED0B8AEEE787
:108A80000A4A084BC9F81C20C9F8243000207CE7AA
:108A90000B68FFDE003802406F12833A65A00408BD
:108AA00011A6030859A004080000000015A303083C
:108AB000F8B5104ED6F82044054600680F46640805
:108AC0000CF05AFEB4FBF7F1B1F5803F03D3012C53
:108AD000FAD96408F6E72246284689B243F0B6FB85
:108AE000054BC6F8883C28460449BDE8F8400022FA
:108AF00043F02CBBE02C00202D2402086839002014
:108B000010B5044C04480A4621460BF077FC204679
:108B100010BD00BF7039002018AC070810B5044C18
:108B200004480A4621460BF069FC204610BD00BFF0
:108B30007039002028AC070810B5044C04480A46D8
:108B400021460BF05BFC204610BD00BF70390020B1
:108B500034AC070810B5044C04480A4621460BF013
:108B60004DFC204610BD00BF7039002040AC070806
:108B700010B5044C04480A4621460BF03FFC204641
:108B800010BD00BF703900204CAC070810B50C4C6C
:108B900094F8CD200023C4F8803012B1094AC2F8FD
:108BA000903D5DF087FC20B10423022084F88430DE
:108BB00010BD044BDB686367092384F8843010BD63
:108BC000E81B0020E02C002070B50D4D95F8843096
:108BD000042B04460E460AD0082B06D1EB6F8342C5
:108BE0000CD0FFF7D3FF022801D0012070BD08236D
:108BF000C5E91F4685F88430022070BD022070BD93
:108C0000E81B002070B54379224C002B14BF0123D0
:108C1000002384F8B03003D1002384F8843070BD81
:108C20001D4D002195F9972D032045F07BF9002873
:108C3000F2D04668304660F02BF884F8CC0000286B
:108C4000EAD095F8953D003B18BF0123304684F8E3
:108C5000CD305DF051FC0BF07BFB38B994F87830E7
:108C600084F88400013384F8783070BD5DF088FAB0
:108C700040B194F878300022013384F8783084F8D9
:108C8000842070BDEB686367012384F8780084F862
:108C9000843070BDE81B0020E02C002010B55DF092
:108CA0006FFA58B10B4C94F878300133DBB2072BD4
:108CB00084F8783003D9002384F8843010BD0BF099
:108CC00047FB0028F7D0044A0123D268626784F882
:108CD000843010BDE81B0020E02C00202DE9F0417D
:108CE000864C94F8B050002D00F0F68094F8842063
:108CF000834E0227531E082B40D8DFE803F0363896
:108D00009C3F664F143F05005DF0D4FB002840F007
:108D1000EA80636FF268FA3393422CD2FFF7BEFF0A
:108D200094F88420E6E75DF0C5FB0028F1D0D4F884
:108D300080300022012B84F8782040F2D880E16F47
:108D400094F8CD00013B0131C4E91F1310B16C4B05
:108D5000C3F8902D082284F88420A2F10805B5FA02
:108D600085F56D092846BDE8F08184F884705DF0D2
:108D7000A1FB002840D194F88420531EDBB2022BC3
:108D800009D85F4B616FDB685B1AC82BE5D9FFF729
:108D900085FF94F88420042ADFD1E3E7236B002BBE
:108DA000DBD1574BE66EDB686367072284F88420CB
:108DB000002ED2D0D4E91821236F0120B047DAE782
:108DC000636FF16864338B42C7D2D4F82C80B8F15A
:108DD000000FF5D15DF06EFB0028A1D0E66E84F89F
:108DE0007880042384F88430002E7AD0D4E91821C6
:108DF000236F4046B047BEE75FF07CF80028BAD149
:108E000096F8993D002BA3F10203B3FA83F314BF44
:108E1000022201225B0984F8792084F87A305FF01D
:108E200069F800287FF47AAF364A0323926CC4F8BD
:108E3000882084F884305FF05DF800289BD1304BA7
:108E4000C4F8800093F8CC6DB3F8CE0DD3F8D0ED14
:108E5000D3F8D0CDD3F8D07DD3F8D02D84F88E6060
:108E600093F8D41DA4F88C0093F8D56D84F8922063
:108E700093F8D50DD3F8D82DC4F89420B3F8DE8D2F
:108E8000B3F8DE2D84F89310B3F8DE1DC2F30B1394
:108E900043EA182303F00F0301F00F024FEA1E6E9E
:108EA0004FEA1C4C3F0A360900F00F0003F5FA6345
:108EB000042184F8990084F88FE084F890C084F845
:108EC000917084F89860A4F89A3084F89C2084F813
:108ED00084102846BDE8F08184F884502846BDE817
:108EE000F08105463EE7042384F884303AE7FAD15E
:108EF000FFF74CFE94F88420531E3FE7E81B002048
:108F0000E02C0020803A00202DE9F8431A4C94F818
:108F10008460042E0546894690461F4608D0082ED8
:108F200002D00020BDE8F8830BF036F90228F8D112
:108F3000D4F8C00045F01CFC94F87A3093B969026B
:108F400011200BF087F998B90C4BC4F86090DA68DF
:108F500065660523C4E91B87626784F884300120B5
:108F6000BDE8F883294611200BF074F90028EBD0F6
:108F70000BF0C4F9D5E700BFE81B0020E02C00206F
:108F800070B51E4C94F88430042B06460D4608D06C
:108F9000082B22D1E36F83422DD00BF0FDF802287D
:108FA0001BD1D4F8C00045F0E3FB002137200BF0C3
:108FB00051F9294617200BF04DF9B0B994F87A30E1
:108FC0006BB9710219200BF045F970B90823C4E997
:108FD0001F6584F88430022070BD012070BD3146C9
:108FE00019200BF037F90028F0D00BF087F90BF0BF
:108FF000C1F9032070BD022070BD00BFE81B002036
:109000002DE9F84FB34C94F8F81D0546C1F3400123
:10901000D4F8000E45F0B8FB94F8F81DD4F8FC0D18
:10902000C94301F0010145F0AFFB002D00F0C38002
:109030006E1EA94FA94D5FFA86FB4FF01008D4F8B9
:10904000000E45F085FBD4F8FC0D45F081FBB4F82B
:10905000083E002B40F0358194F80A1ED4F80C0E1F
:1090600045F092FB4FF0FA094FF47A704FF0010C83
:109070007B68C3F30803002B40F0FB80EFF3118300
:10908000002B40F0F680E268A968E3689A42FAD1C2
:10909000D4F8303E9942F6D8D4F82C6E00FB06F393
:1090A0005B1AB3FBF6F300FB02327B68C3F30803E1
:1090B000002B40F09F80EFF31183002B40F09A804B
:1090C000E368D5F808A0E1688B42F9D1D4F8301EE6
:1090D0008A45F5D8D4F82C6E00FB06F1A1EB0A0105
:1090E000B1FBF6F100FB03139B1AB3F57A7FDCD3D7
:1090F000B9F10109BCD1D4F8000E45F029FBD4F830
:10910000FC0D45F025FBB4F8083E002B40F0CD8067
:1091100094F80A1ED4F80C0E81F0010145F034FBDE
:109120004FF0FA0C4FF47A704FF0010E7B68C3F3E6
:109130000803002B7ED1EFF31183002B7AD1E26874
:10914000A968E3689A42FAD1D4F8303E9942F6D839
:10915000D4F82C9E00FB09F35B1AB3FBF9F300FB78
:1091600002327B68C3F308033BBBEFF3118323BBDD
:10917000E368D5F808A0E1688B42F9D1D4F8301E35
:109180008A45F5D8D4F82C9E00FB09F1A1EB0A0121
:10919000B1FBF9F100FB03139B1AB3F57A7FE0D31F
:1091A000BCF1010CC2D10BF1FF365FFA86FBBBF1BB
:1091B000FF0F7FF444AFBDE8F88FEFF3118988F318
:1091C0001288AE682B68DB0344BFC4F828EEAE6893
:1091D000E368D4F8281E5FFA89F989F31188D4F876
:1091E0002C9E0B4400FB09F1891BB1FBF9F100FB3C
:1091F0000313D1E7EFF3118E88F31288D5F808A096
:109200002B68D90344BFC4F828CED5F808A0E3687A
:10921000D4F8281E5FFA8EFE8EF31188D4F82C6ED7
:109220000B4400FB06F1A1EB0A01B1FBF6F100FBD8
:10923000031359E7EFF3118188F31288D5F80890EA
:109240002B68DA0344BFC4F828EED5F80890E36829
:10925000D4F8282EC9B281F31188D4F82C1E1A44F0
:1092600000FB01F3A3EB0903B3FBF1F300FB0232B4
:1092700077E7EFF3118188F31288AE682B68DB0380
:1092800044BFC4F828CEAE68E368D4F8282EC9B22B
:1092900081F31188D4F82C1E1A4400FB01F39B1BA8
:1092A000B3FBF1F300FB0232FFE6D4F8243E002BBF
:1092B0003FF436AFD4F8103EC3F8009084F8219EF6
:1092C0002EE7D4F8243E002B3FF4CCAE44F05EFAF7
:1092D000C8E600BFE02C002000ED00E010E000E058
:1092E0002DE9F84FB04CB14F94F8F81DD4F8000EAA
:1092F000AF4DC1F3400145F047FA94F8F81DD4F89A
:10930000FC0DC94301F0010145F03EFA4FF0050B99
:109310004FF01008D4F8000E45F01AFAD4F8FC0DFE
:1093200045F016FAB4F8083E002B40F0358194F869
:109330000A1ED4F80C0E45F027FA32264FF47A7044
:109340004FF0010C7B68C3F30803002B40F0FA8058
:10935000EFF31183002B40F0F580E268A968E36821
:109360009A42FAD1D4F8303E9942F6D8D4F82CEE8D
:1093700000FB0EF35B1AB3FBFEF300FB02327B68CB
:10938000C3F30803002B40F09E80EFF31183002B02
:1093900040F09980E368D5F808A0E1688B42F9D1E4
:1093A000D4F8301E8A45F5D8D4F82CEE00FB0EF127
:1093B000A1EB0A01B1FBFEF100FB03139B1AB3F50D
:1093C0007A7FDCD3013EBDD1D4F8000E45F0C0F960
:1093D000D4F8FC0D45F0BCF9B4F8083E002B40F081
:1093E000D08094F80A1ED4F80C0E81F0010145F0EB
:1093F000CBF94FF0320C4FF47A7001267B68C3F33F
:109400000803002B7FD1EFF31183002B7BD1E2689F
:10941000A968E3689A42FAD1D4F8303E9942F6D866
:10942000D4F82C9E00FB09F35B1AB3FBF9F300FBA5
:1094300002327B68C3F308032BBBEFF3118313BB2A
:10944000E368D5F808A0E1688B42F9D1D4F8301E62
:109450008A45F5D8D4F82C9E00FB09F1A1EB0A014E
:10946000B1FBF9F100FB03139B1AB3F57A7FE0D34C
:10947000BCF1010CC2D10BF1FF3616F0FF0B7FF4EB
:1094800049AFBDE8F88FEFF3118988F31288D5F85A
:1094900008A02B68DB0344BFC4F8286ED5F808A0E9
:1094A000E368D4F8281E5FFA89F989F31188D4F8A3
:1094B0002C9E0B4400FB09F1A1EB0A01B1FBF9F171
:1094C00000FB0313D0E7EFF3118E88F31288D5F871
:1094D00008A02B68D90344BFC4F828CED5F808A04B
:1094E000E368D4F8281E5FFA8EFE8EF31188D4F854
:1094F0002CEE0B4400FB0EF1A1EB0A01B1FBFEF1D7
:1095000000FB03135AE7EFF3118188F31288D5F8B3
:1095100008902B68DA0344BFC4F8286ED5F8089089
:10952000E368D4F8282EC9B281F31188D4F82C1E30
:109530001A4400FB01F3A3EB0903B3FBF1F300FBB7
:10954000023276E7EFF3118188F31288D5F808E04C
:109550002B68DB0344BFC4F828CED5F808E0E368E5
:10956000D4F8282EC9B281F31188D4F82C1E1A44DD
:1095700000FB01F3A3EB0E03B3FBF1F300FB02329C
:10958000FDE6D4F8243E002B3FF433AFD4F8103E70
:109590001E6084F8216E2CE7D4F8243E002B3FF4A3
:1095A000CCAE44F0F3F8C8E6E02C002000ED00E07B
:1095B00010E000E000F01F0240090123032803FA35
:1095C00002F304D004280CD0022805D07047074AC3
:1095D000116C0B4313647047044A516C0B43536482
:1095E0007047024A116B0B43136370470038024007
:1095F00000285FD00368374A2DE9F04103F13F446A
:1096000004F57E0402EB9422012492F8982002F0E3
:109610001F055209032A04FA05F456D0042A4FD034
:10962000022A48D08588B5FA85F0C0F11F00C0F342
:10963000CC0603EB860600F0070082000F24306A98
:10964000944020EA04003062306A01FA02F20243D8
:10965000002132624FF0010E0A464FF0030C022740
:109660000EFA02F838EA050002F101021CD118686E
:109670000CFA01F420EA04001860186807FA01F6F1
:1096800006431E609E6826EA04069E6098689860FD
:10969000586820EA0800586058685860D86820EA7E
:1096A0000400D860D868D860102A01F10201D7D12F
:1096B000BDE8F0817047084A556C2C435464B1E70B
:1096C000054A156B2C431463ACE7034A156C2C4315
:1096D0001464A7E7B8F6060800380240002861D0F5
:1096E0000368384A03F13F4101F57E0102EB912204
:1096F0002DE9F04192F8982002F01F04520901214F
:10970000032A01FA04F158D0042A51D0022A4AD07F
:109710008588B5FA85F2C2F11F02C2F3CC0403EBCF
:10972000840402F00702216A92000F20904021EA8F
:1097300000012162206A0C2101FA02F20243002199
:10974000226208464FF0010E4FF0030C02270EFA7A
:1097500000F838EA050200F101001DD11C680CFA7E
:1097600001F224EA02041C601E6807FA01F4344383
:109770001C609E6826EA02069E609E6816439E60F4
:109780005C6824EA08045C605C685C60DC6824EA6D
:109790000202DA60DA68DA60102801F10201D6D13B
:1097A000BDE8F0817047084A546C21435164AFE72B
:1097B000054A146B21431163AAE7034A146C214341
:1097C0001164A5E7B8F606080038024070B5294EC6
:1097D00096F8344E012C84B03ED0022C2BD1D6F812
:1097E0003C3E40F0800413B118689B884383D6F850
:1097F000380E838940F2E9350389013D13F0020FE9
:10980000ADB21BD0A4B2848140F2E9340389013C9B
:1098100013F0010FA4B21CD0838913460A4600211D
:1098200060F064FDD6F83C3E0BB31A689B88138346
:10983000012004B070BD002004B070BD002DDBD14C
:10984000CDE9021246F084FCDDE90212D6F8380EAA
:10985000E3E7002CDAD1F3E70091134696F8391EBE
:10986000024696F9380E61F0D7F804B070BD0120B9
:10987000E2E700BFE02C002058B183884FF000429F
:10988000B3FA83F332FA03F303D002490A681343AD
:109890000B607047003C0140134B0268196821EAD5
:1098A00002011960596821EA0201596019680A43E6
:1098B0001A609968026821EA02019960D96821EA70
:1098C0000201D9604179102907D001F1804303F5E5
:1098D0009E3319680A431A6070479968114399606A
:1098E000D9680A43DA607047003C0140002864D020
:1098F000F0B58388B3FA83F3202B0A4685B004467B
:10990000C3F11F0143D02D4D2D4E05EB8103771878
:10991000C3F8742E002197F8A07043F025F9B4F82D
:1099200004C02268274CBCFA8CFCCCF11F0303F066
:10993000FC0101F1804101F59C3103F00303980023
:109940004FF00F0E02F13F438A680EFA00FE22EA42
:109950000E0203F57E038A60C3F387238340886881
:109960004FF0004222FA0CF203433D448B6002A800
:10997000626101234FF400618DF80E300292ADF860
:109980000C10FFF789FF95F8B43EF02B01D805B015
:10999000F0BD3E44F02196F8B0308DF8043003223B
:1099A0004FF4807301A885F8B41E8DF80520ADF83A
:1099B00006300BF09FFC05B0F0BD7047E02C002096
:1099C000B8F60608003C014010B4B8B10D4CD4F80C
:1099D000BC3E102B05D15DF8044B0521002043F05F
:1099E000ABBB03EB4302224482F8C11E01210B44AE
:1099F00082F8C00E82F8C21EC4F8BC3E5DF8044B6B
:109A0000704700BFE02C00202DE9F04FDFF884A361
:109A10002DED028B9AF8041F002297B0CAF8F42E9D
:109A2000CAF8F82ECAF8FC2ECAF8002FCAF8F02E91
:109A300019B19AF8052F8AF8F02E9AF8062F1AB164
:109A40009AF8072F8AF8FF2E9AF80A2F1AB19AF877
:109A50000B2F8AF8FA2E9AF8082F1AB19AF8092FC4
:109A60008AF8F52E9AF80C3F05935A1ED3B257B2D6
:109A700004937B1C00F0AA80BC4ABD4E52F837808C
:109A8000029602EBC70200231279019308EE102A16
:109A90001D463446994626783946304646F0B0FF92
:109AA00083463046BBF1000F1ED044F07DFBEA1D1B
:109AB0001321D2B220B14FF0000E827180F807E07E
:109AC00043F052F8207846F0CDFF4FF0070309F13C
:109AD000010223714FF0010384F802906070CDF809
:109AE00004B05FFA82F9E3700135042D04F1050436
:109AF000D1D118EE100A029ECDF80C90FFF75AFD56
:109B00009C499D4A4868024042F440324A600FB97D
:109B1000019B5BB9994C4820FFF74CFD2046022180
:109B200061F082F8A26842F00102A2609148934A73
:109B30004168BAF80E4F41F400014160516821F4C8
:109B400080515160916B21F4401141F48011916377
:109B5000D16841F46001D160956B85F44011C1F387
:109B6000015101EB81011F2000FA01FC25EA0C0CD8
:109B7000112505FA01F141EA0C019163D16841F424
:109B8000E011D160956BC5F30151C1F10401C9B277
:109B900001EB810188404FF0100C25EA00000CFA1F
:109BA00001F108439063E4B1BAF8101FCAF8184FE6
:109BB000A1B1BAF8122FCAF81C1F62B1019B7048FC
:109BC000521A90FBF2F2CAF8202F6BB917B0BDEC15
:109BD000028BBDE8F08F6B4A1288EFE76A4A118862
:109BE000E7E76A4A1488DFE74046039961F01CF80A
:109BF0005F4B012003F114090723F278441CE4B2FF
:109C000052B375783279A5F10A0101EB410105EBF8
:109C1000450C092D03FA01FE03FA0CFB02FA01F1CF
:109C200040F28E80D8F80C2022EA0E0E41EA0E0196
:109C3000C8F80C10421E02EB82021F21062801FA0E
:109C400002FC05FA02F261D8D8F8341021EA0C01BE
:109C50000A432046C8F834200536B145CDD1D8F89E
:109C60000820049942F40072C8F80820D8F80820A7
:109C700042F48072C8F80820D8F80820574442F00F
:109C80000102C8F8082097F9142F022044F04AF97D
:109C9000044600289AD040685EF0FAFF059A062133
:109CA0005FF008F860680BF0CDFB07A80BF08CFBA9
:109CB000039EA368364A0793012E8CBF4FF4806041
:109CC000002000230D9008F14C054FF4006008952A
:109CD00009920A934FF480720C930E904FF4003364
:109CE00060680B9607A94FF40055CDE90F52119308
:109CF0000BF07CFB6268136843F001031360D8F833
:109D0000083043F08043C8F808305FE7C11FA0F176
:109D10000D0201EB81014FF01F0E02EB82020C28B5
:109D20000EFA01FC0EFA02F005FA01F113D8D8F888
:109D3000302022EA0C0211432046C8F830108BE78D
:109D4000D8F8101002FA0CF221EA0B0B42EA0B02CF
:109D5000C8F810206EE7D8F82C1005FA02F221EAB4
:109D600000010A432046C8F82C2075E770F7060862
:109D7000D03B002000230140E030FCFF00200140E8
:109D8000803801002E7AFF1F2C7AFF1F2A7AFF1FCE
:109D9000043C0020E02C0020F8B5274E00EBC00466
:109DA00006EB8404D4F8305F002D38D094F841CF0E
:109DB0000CF0FF07BCF1000F31D149004FF0010C4E
:109DC000C9B284F8421F84F8432F84F845CF84F841
:109DD000467F84F844CF84F841CF84F8407FAA8836
:109DE000C4F8483FC4F84C3F940502D501273846D3
:109DF000F8BD2B88D9050CD44FF4805301E0013B0A
:109E000010D02A889205FAD42B889BB243F4807331
:109E10002B80AB889BB243F44073AB80E6E700270E
:109E20003846F8BDB6F8983F01339BB2A6F8983F84
:109E300060F0A2FBDBE700BFE02C002070B44D4DCA
:109E400095F89A3F03EB430105EBC1015A0091F8E5
:109E50009C1F03291ED8DFE801F00E200250D11804
:109E600005EBC101D1F8A00F08B30138C1F8A00F6C
:109E700070BC00207047404991F82061002E63D0EB
:109E80003E48002101E08E425ED0048801318C30D2
:109E9000002CF8D0012070BC7047D11805EBC1012F
:109EA000D1F8A00F0028E0D1022081F89C0F1A44BD
:109EB00005EBC20292F8A81F0139C9B282F8A81FA7
:109EC000B9BB2F492F4891F86453006BD2F8A44FC7
:109ED000013303F00303411E0326AB42214482F801
:109EE0009C6FB1FBF0F4C2F8A04FD3D088429CBF66
:109EF00004F1FF34C2F8A04FCCE71A4405EBC202CC
:109F0000D2F8A00F88BB1E4A92F864239342C1D0B6
:109F1000013303F003018A4285F89A1FBAD001EB9E
:109F2000410305EBC3030222C3F8A00F83F89C2F63
:109F3000B1E7144B196B012001F2E73370BCB3FB9E
:109F4000F1F3C2F8A03F70470E491344096B05EBCB
:109F5000C303012001F51C520F3270BCB2FBF1F2B9
:109F600083F89C0FC3F8A02F70470138C2F8A00FE8
:109F7000002090E7E02C002010000010DC3C0020C6
:109F8000D83D002088010020054B93F86523002A66
:109F9000FBD1D3F8C83E03491B6801F10C001847F8
:109FA000D83D0020404100202DE9F84F3249DFF82C
:109FB000D4B091F8991D012402290746194610468C
:109FC000CBF82C404FF000022C4C1D4618BF7F02EE
:109FD000FEF716F82A4B63626B02A362E36A40F253
:109FE000FF5943F093034FF400704FF48A62E36229
:109FF0000121C4F83890A0601020E2605EF0C6F83D
:10A00000012D40F251434E46C4F83890CA4640F202
:10A0100052488EBF4FF0120998464FF011090A2599
:10A02000C4F838A00121A7604846C4F80C805EF04F
:10A03000ADF803464FF0000C40F277420121372083
:10A04000A6632BB900231846CBF82830BDE8F88F5B
:10A05000A663C4F808C0E2605EF098F8013DA6630C
:10A060000028EFD015F0FF05DAD10346CBF82C50CD
:10A07000CBF82830BDE8F88FE02C0020002C014000
:10A0800000E1F505E81B00202DE9F843DFF87080BA
:10A0900098F88450042D0446894617461E4608D079
:10A0A000082D02D00020BDE8F883FEF76FFD0228DE
:10A0B000F8D101234A4620460021FFF775FF68B119
:10A0C000FEF7ECFDD8F86C40002CEBD00022D8F85D
:10A0D0007030D8F864101046A047E3E7074BC8F883
:10A0E0006090DA68C8F864400523C8E91B76C8F8B0
:10A0F000742088F884300120BDE8F883E02C00202B
:10A10000E81B00202DE9F84F2F49DFF8C49091F8A3
:10A11000991D1E4602292D4B07464FF0010418BF1A
:10A120004702012E40F259481C6398BF4FF48B68D8
:10A130003B469346474640F2FF55B0468CBF4FF032
:10A14000190A4FF0180A0A241E4640F2FF53C9F8B4
:10A1500038300121C9F808605046C9F80C705EF02B
:10A1600015F803464FF0000C40F2774201213720EA
:10A17000C9F83850A3B9584641460122FDF740FFBF
:10A180004646134A134B536276029662D36A43F0F3
:10A190009103D3620D4B002108469962BDE8F88F08
:10A1A000C9F83850C9F808C0C9F80C205DF0EEFFB6
:10A1B000013CC9F838500028DDD014F0FF04C4D1A8
:10A1C000024B1C63BDE8F88FE02C0020E81B002048
:10A1D000002C014000E1F5052DE9F047374C82B035
:10A1E00005460E461746984694F8840004280CD07D
:10A1F000082806D1E36FAB4207D0FEF7C7FC022860
:10A20000F2D0012002B0BDE8F087DFF8B8A02666E2
:10A21000DAF8909D6566C9F34F210F294FEA59225C
:10A2200023D8D4F880300193FBB194F8CD00E0B18D
:10A23000B9F5005F13D0224831464FF4007248440C
:10A2400065F088F909F50072C2F34F211029CAF8A8
:10A25000902D4FEA522202D0019B012B21D192B2C4
:10A26000013A174EAD1A0B4600E00123324628464C
:10A27000062601250021E766C4F8708084F868503E
:10A2800084F88460FFF73EFF0028BBD0FEF706FD90
:10A29000E66E86B12846236F616E0022B047032028
:10A2A000B0E7E26F013B01320421C4E91F2384F8C7
:10A2B00084100220A6E70320A4E700BFE81B0020CB
:10A2C00030660020E02C0020144A154BD2F82024E0
:10A2D000B3EB920F15D2B3EBD20F14D2B3EB121F24
:10A2E00013D2B3EB521F12D2B3EB921F11D2B3EBC6
:10A2F000D21F10D2B3EB122F34BF4FF480708020E6
:10A3000070470220704704207047082070471020D3
:10A310007047202070474020704700BFE02C00208D
:10A3200080969800144A154BD2F82024B3EB920F74
:10A3300014D2B3EBD20F13D2B3EB121F12D2B3EB82
:10A34000521F11D2B3EB921F10D2B3EBD21F0FD218
:10A35000B3EB122F0ED24FF480707047022070477B
:10A360000420704708207047102070472020704755
:10A370004020704780207047E02C002040420F00B2
:10A3800070B5284D95F8344E022C84B013460ED08B
:10A39000012C09D10091024695F8391E95F9380E25
:10A3A00060F03AFB04B070BD002004B070BDD5F879
:10A3B0003C2E12B1146892886283D5F8386EB28947
:10A3C00040F2E9343289013C12F0020FA4B218D0F5
:10A3D00084B2B48140F2E9343289013C12F0010FB9
:10A3E000A4B21AD0B2890A46304600215FF07EFF3F
:10A3F000D5F83C3EA3B11A689B881383012004B0B2
:10A4000070BD002CDED13046CDE9021345F0A0FE30
:10A41000DDE90213D5F8386EE5E7002CDCD1F2E770
:10A420000120BFE7E02C002010B50278022A044684
:10A4300013D0012A01D0002010BD2D4B90F904004B
:10A4400083F8CC2E421CF6D00328F4DC0A4603F62F
:10A45000CC636179BDE810409EE4836813B11A684B
:10A460009B8853836368988940F2E9321889013ADE
:10A4700010F0020F92B225D089B2998140F2E932F0
:10A480001989013A11F0010F92B22BD09A899A8959
:10A4900040F2E9321989013A11F0020F92B21ED04E
:10A4A00001229A8140F2E9321989013A11F0010F33
:10A4B00092B20ED09B89A368BBB11A689B881383A4
:10A4C000012010BD002AD1D1184645F041FE636835
:10A4D000DDE7002AE8D1184645F03AFEEBE7002A0E
:10A4E000D8D1F8E7002ACBD1EEE7012010BD00BF9C
:10A4F000D83D002010B50D4C94F8343E022B13D1FA
:10A50000D4F83C0E44F03AF9D4F83C0E08B12123BB
:10A51000C380012142F028FBFFF7D6FEBDE81040C2
:10A520000146034845F0A0BD10BD00BFE02C00204F
:10A53000143B002073B50D4E05460C46FF230A461A
:10A54000014630468DF8073045F0E8FE01230DF155
:10A55000070245F08001304645F0A4FE9DF8070053
:10A56000031B5842584102B070BD00BF143B00208D
:10A5700038B504460D460848214645F071FF35EAD6
:10A58000000300D138BD40EA050221460248BDE87B
:10A590003840D2B246F0B2B8143B002020EE000A98
:10A5A000704737B5384C00238DF8073094F8DC3EFF
:10A5B00003F0FD02012A05D194F8E42E12B90C2211
:10A5C00084F8E42E022B314D1DD0032B2ED0012216
:10A5D0000B2128465BF050FC042043F013F80123C4
:10A5E0000DF10702002128465BF067FCB0B39DF82F
:10A5F0000730482B32D1264BC4F8D03E254BC4F847
:10A60000D43E03B030BDD4F8E40E44F0B7F8D4F82B
:10A61000E40E08B13523C380012142F0A5FAFFF70B
:10A6200053FE0146284645F01FFDD0E71A4BD4F8EB
:10A63000E00E46F2A812C3F80424372112225BF080
:10A64000F1FBD4F8E00E0D2224215BF0EBFBD4F8F3
:10A65000E00E30226A215BF0E5FBB8E794F8DC3EBF
:10A66000022B03D0032B07D00020CAE7D4F8E40E56
:10A6700045F0DAFC0020C4E7D4F8E00E10223721C0
:10A680005BF0D0FBF0E700BFD83D0020B44C0020C9
:10A69000135F0608955F0608880100202DE9F84F32
:10A6A000364E374BD6F82024B3EB920F054688463A
:10A6B00080F0B784B3EBD20F80F0B884B3EB121FF5
:10A6C00080F0BF84B3EB521F80F0CA84B3EB921FBB
:10A6D00080F0D284B3EBD21F80F0DA84B3EB122F78
:10A6E00034BF4FF480738023264F274CA7F8183FC0
:10A6F000002107F61C7318464FF4F07287F81A1FF2
:10A70000202164F088FF4FF4F07200F5F0702021F2
:10A7100064F081FF94F8E50158B394F8E63143B34F
:10A720004FEA101909F1FF39B9F1050F00F00F00D8
:10A7300000F20084DFF858A00AEB4903B3F8842044
:10A7400042FA00F3DB0740F1F583012303FA00F03E
:10A7500001381040D14461F079F999F890200B4B01
:10A76000104403EBC000C4F8F001837993B1412B8E
:10A7700010D06FF00100BDE8F88F00BFE02C002082
:10A7800080969800D83D0020D04E0020002E00205A
:10A79000B8F606082323C380092142F0E5F9D4F86E
:10A7A000F02112B113689188198394F8E631013BC6
:10A7B0005BB2591C00F0E483022B00F3E183D6F86E
:10A7C0002014DFF868C204EB03134FF0020ED3F835
:10A7D000F401C4F8EC01BCEB910F21FA0EF384F8FC
:10A7E000E8E180F061849149B1EB530F80F02C8453
:10A7F000B1EB930F80F02F84B1EBD30F80F039844D
:10A80000B1EB131F80F03F84B1EB531F80F04984FC
:10A81000B1EB931F34BF4FF4807380235B0001883A
:10A82000DFF810C221F040010904090C0180018801
:10A8300021F03801090460454FEA114100F04E83D0
:10A84000DFF8F4C1604500F04983B3F5807FA8BF0D
:10A850004FF48073002B93FAA3F3B3FA83F308BF8A
:10A860004FF0FF33013B41EAC3039BB203800188F1
:10A87000B7F8183FDFF8BCC189B241F04001018050
:10A88000018821F040010904090C0180018821F0B0
:10A890003801090460454FEA114100F01D830CF5B1
:10A8A000806C604500F01883B3F5807FA8BF4FF43B
:10A8B0008073022BB8BF0223002B93FAA3F3B3FAE1
:10A8C00083F308BF4FF0FF33013B41EAC3039BB260
:10A8D000038003889BB243F04003038012B11368E6
:10A8E00092885A83838940F2E9330289013B12F04E
:10A8F000020F9BB200F0E6828C23838140F2E933A1
:10A900000289013B12F0010F9BB200F0D3828389D0
:10A91000838940F2E9330289013B12F0020F9BB2B6
:10A9200000F0BE82FF23838140F2E9330289013BBC
:10A9300012F0010F9BB200F0A982B0F80CC05FFAD0
:10A940008CFCD4F8F02112B1136891881983D6F8E1
:10A950002014374BB3EB910F80F06683B3EBD10F2C
:10A9600080F06D83B3EB111F80F07883B3EB511F40
:10A9700080F07D83B3EB911F80F08883B3EBD11F10
:10A9800080F08D83B3EB112F34BF4FF4807380239D
:10A990000188DFF8A0E021F040010904090C0180E2
:10A9A000018821F03801090470454FEA114100F097
:10A9B00091820EF5806E704500F08C82022BB8BF3C
:10A9C0000223002B93FAA3F3B3FA83F308BF4FF0EB
:10A9D000FF33013B41EAC3039BB2038003889BB270
:10A9E00043F04003BCF11B0F038040F0668301235A
:10A9F00087F81A3F0AB12323D3800188B7F8183F9C
:10AA0000DFF830C021F040010904090C0180018801
:10AA100021F03801090460454FEA114100F06082DD
:10AA20000CF5806C604500F05B8207E08096980032
:10AA300040420F0000380040003C0040B3F5807FEA
:10AA4000A8BF4FF48073022BB8BF0223002B93FAE8
:10AA5000A3F3B3FA83F308BF4FF0FF33013B41EA9E
:10AA6000C3039BB2038003889BB243F0400303807F
:10AA700012B1136892885A83838940F2E9330289BC
:10AA8000013B12F0020F9BB200F0F2810A23838196
:10AA900040F2E9330289013B12F0010F9BB200F052
:10AAA000DF818389838940F2E9330289013B12F017
:10AAB000020F9BB200F0CC814023838140F2E93346
:10AAC0000289013B12F0010F9BB200F0B98183892A
:10AAD000838940F2E9330289013B12F0020F9BB2F5
:10AAE00000F0A6818A23838140F2E9330289013B89
:10AAF00012F0010F9BB200F093818389838940F2A9
:10AB0000E9330289013B12F0020F9BB200F07F8112
:10AB1000FF23838140F2E9330289013B12F0010FE8
:10AB20009BB200F06B818389DBB2D4F8F011C3F3E0
:10AB3000801C84F824C203F0400321B10A68B1F8F4
:10AB400004E0A2F818E0D6F820A4CD4AB2EB9A0FA0
:10AB50004FEA9A0980F06D82B2EBDA0F80F07782CB
:10AB6000B2EB1A1F80F08182B2EB5A1F80F087820D
:10AB7000B2EB9A1F80F09182B2EBDA1F80F09782DD
:10AB8000B2EB1A2F34BF4FF480728022B0F800E08D
:10AB9000DFF8F4B22EF0400E4FEA0E4E4FEA1E4E92
:10ABA000A0F800E0B0F800E02EF0380E4FEA0E4EAC
:10ABB00058454FEA1E4E00F097810BF5806B5845C3
:10ABC00000F09281022AB8BF0222002A92FAA2F271
:10ABD000B2FA82F208BF4FF0FF32013A4EEAC202E7
:10ABE00092B20280028892B242F04002028094F84F
:10ABF000E421012A00F0E281022A00F0F581002A16
:10AC000000F09C81B7F8183F94F82522182A05D146
:10AC1000A4F82882A4F82AC2A4F82C320288DFF80B
:10AC200068C222F040021204120C0280078827F04A
:10AC300038073F0460454FEA174700F05381914AB7
:10AC4000904200F04F811A46B2F5807FA8BF4FF4C2
:10AC50008072022AB8BF0222002A92FAA2F2B2FA45
:10AC600082F208BF4FF0FF32013A47EAC20292B2C5
:10AC700002800288844F92B242F040020280028831
:10AC800022F040021204120C0280028822F03802E4
:10AC90001204B8424FEA124200F0488107F580677B
:10ACA000B84200F04381B3F5807FA8BF4FF48073B2
:10ACB000022BB8BF0223002B93FAA3F3B3FA83F35A
:10ACC00008BF4FF0FF33013B42EAC3039BB203804E
:10ACD00003889BB243F04003038011B10B688A885C
:10ACE0005A83838940F2E9330289013B12F0020F53
:10ACF0009BB200F013810023838140F2E933028983
:10AD0000013B12F0010F9BB200F00081838983891F
:10AD100040F2E9330289013B12F0020F9BB200F0CE
:10AD2000ED800223838140F2E9330289013B12F076
:10AD3000010F9BB200F0DA808389D4F8F03113B1AF
:10AD40001A689B881383D6F820244D4BB3EB920FDF
:10AD500080F07181B3EBD20F80F07B81B3EB121FD7
:10AD600080F08181B3EB521F80F08B81B3EB921F97
:10AD700080F09181B3EBD21F80F09B81B3EB122F57
:10AD800034BF4FF48073802302883F4922F0400291
:10AD90001204120C0280028822F038021204884247
:10ADA0004FEA124200F0C48001F58061884200F051
:10ADB000BF80022BB8BF0223002B93FAA3F3B3FA90
:10ADC00083F308BF4FF0FF33013B42EAC3039BB25A
:10ADD000038003889BB243F0400303806A78AB781A
:10ADE000297884F83012C2F12002C3F1100384F8EC
:10ADF000312284F832320020BDE8F88F002B7FF436
:10AE00008BAE45F0A5F9C3B2D4F8EC018DE6002B6A
:10AE10007FF477AE45F09CF9C3B2D4F8EC0184E638
:10AE2000002B7FF463AE45F093F9D4F8EC0165E6AE
:10AE3000002B7FF450AE45F08BF9D4F8EC015DE6C1
:10AE4000002B7FF43DAE45F083F9D4F8EC013FE6EA
:10AE5000002B7FF42AAE45F07BF9D4F8EC0137E6FD
:10AE6000002B7FF417AE45F073F9D4F8EC0119E626
:10AE7000002B7FF404AE45F06BF9D4F8EC0111E639
:10AE800040420F00003C004000380040002B7FF49F
:10AE90004DAD45F05DF95FFA80FCD4F8EC0150E56A
:10AEA000002B7FF438AD45F053F95FFA80FCD4F8FD
:10AEB000EC0146E5002B7FF423AD45F049F9D4F8C9
:10AEC000EC0125E5002B7FF410AD45F041F9D4F8F5
:10AED000EC011DE55B0871E55B08E5E45B08B4E4A3
:10AEE0005B08ABE55A08AFE652086BE6002B7FF42F
:10AEF0001CAF45F02DF9D4F8EC011EE7002B7FF4D0
:10AF000009AF45F025F9D4F8EC0116E7002B7FF4E2
:10AF1000F6AE45F01DF9D4F8EC01F8E6002B7FF40D
:10AF2000E3AE45F015F9D4F8EC01F0E65B08BAE6BB
:10AF30005B083EE70020C4F8F0012DE46A4B994518
:10AF400040F2B980B3EBDA0F80F0BE80B3EB1A1F8A
:10AF500080F0BC80B3EB5A1F80F0BA80B3EB9A1F2D
:10AF600080F0B880B3EBDA1F80F0B680B3EB1A2F15
:10AF700034BF4FF4807380235B00A7F8183F43E68B
:10AF8000D6F82014DFF860C14FF0020E0020BCEBB1
:10AF9000910F21FA0EF384F8E8E1C4F8EC01FFF414
:10AFA00022AC038823F040031B041B0C038003889E
:10AFB00023F038010904090C042341E4B8F1000F1F
:10AFC00001D0002BBAD0484B99454FF00203D4D999
:10AFD000454A4FEA59095B0091459BB2CDD9FF2BF9
:10AFE000F7D9A7F8183F0FE63F4B994598BF13468E
:10AFF000C3D9B3EBDA0F5ED2B3EB1A1F1DD2B3EB9A
:10B000005A1F6BD2B3EB9A1F6AD2B3EBDA1F69D225
:10B01000B3EB1A2F34BF4FF480738023A7F8183F87
:10B02000F2E50223FFF760BB0223B1E40423FFF73C
:10B030005BBB0222AAE50223A6E608239DE70423C0
:10B04000A6E40823FFF750BB0423FFF7E7BB042265
:10B050009CE5042398E60823FFF7E0BB082397E468
:10B060001023FFF741BB08238EE608228EE510234C
:10B070008EE41023FFF7D2BB2023FFF735BB10224D
:10B0800084E5102380E62023FFF7C8BB20237FE45C
:10B090004023FFF729BB202376E6202276E54023D4
:10B0A00076E44023FFF7BABB0423FFF7B8BB402286
:10B0B0006CE5402368E604235FE71046202141F059
:10B0C00053FD4FF0FF3097E6042355E7082353E77D
:10B0D000102351E720234FE740234DE710234CE78F
:10B0E00020234AE7402348E780969800014601481C
:10B0F00045F050B804510020094B93F89230042BCE
:10B1000008D9053B032B08D801231A4600B1037068
:10B110001046704700230122F8E700231A46F5E79E
:10B12000E02C0020F0B40D6800240CE0BCF1050F09
:10B1300018D8A0F137030A2B14D104EB840415F8B6
:10B14000010B03EB4404A0F13003DEB2092EA0F1A1
:10B150006107A0F1410CF0D9052FE7D8A0F1570302
:10B160000A2BEAD00D601460F0BC70479FED737A33
:10B1700007EE901A20EE070AF8EE677A27EE800AAB
:10B18000FDEEC07A17EE903A2033402B00F2C780D4
:10B19000DFED6B7AB4EEE70AF1EE10FAF0EE407AEA
:10B1A0000CDD9FED686ADFED686AB0EE677AB4EE99
:10B1B000E67AF1EE10FA77EEC67AF6DC9FED637A66
:10B1C000F4EEC77AF1EE10FA0CD59FED5E6ADFED72
:10B1D000606AB0EE677AB4EEE67AF1EE10FA77EED6
:10B1E000867AF6D49FED5B7AF4EEC77AF1EE10FA28
:10B1F00000F38D809FED587AF4EEC77AF1EE10FAE5
:10B2000044BF9FED527A77EE677A27EEA76ADFEDAB
:10B21000535A9FED537ADFED536AA6EE257A67EE17
:10B22000865AE6EE076AB6EE007AE5EEA67A27EED3
:10B23000877ADFED486A70EE267ABDEEE76A16EE91
:10B24000103A2033402B67D8B4EEE60AF1EE10FA3C
:10B250000CDDDFED3C5A9FED3C6AF0EE676AF4EEE0
:10B26000C66AF1EE10FA77EEE57AF6DCDFED376AC2
:10B27000F4EEE67AF1EE10FA0CD5DFED325A9FEDDE
:10B28000346AF0EE676AF4EEC66AF1EE10FA77EE11
:10B29000A57AF6D4DFED2F6AF4EEE67AF1EE10FA35
:10B2A00040DDDFED276A76EEE77A67EEA75A9FED7D
:10B2B0002B5A9FED2B6ADFED2B6AA5EE856A27EEF0
:10B2C000A55AE5EE866AB8EE006AE5EE267A67EEE4
:10B2D000867AC7EE206A0023836143610362C361FB
:10B2E000B7EE006A76EE865A76EE666A86EE257AC4
:10B2F00067EE277A66EE876AC0ED017AC0ED037AC1
:10B3000080ED007A80ED027AC0ED046A70479FED0F
:10B310000C7A77EE677A78E7DFED137AD9E79FED5D
:10B32000127A86E7DFED0C6AF4EEE67AF1EE10FAB7
:10B3300044BFDFED066A76EEE77AB6E727D4D23669
:10B34000DB0F4940DB0FC940E4CB1641DB0F49C09E
:10B35000E4CB16C1DB0FC93FDB0FC9BF92E741B990
:10B360009730083C15A82ABE000000002DE9F84FD0
:10B37000DFF8F083E44ED8ED4B7A96F84052F8EEC1
:10B38000670A08F507632DED028BC3ED000A002D57
:10B390007FD1DFF8D493C8F8785898F87CE899F80A
:10B3A0000050BEF1000F47D0B6F844329FEDD76A87
:10B3B0009FEDD77A07EE903AF8EE677A20EE877A1B
:10B3C000C6EE276A0023BEF1010FC6F8483276EEBA
:10B3D000876AC7EE267AC6ED937A2DD0BEF1020FAA
:10B3E000C6F85032C6ED957A26D0BEF1030FC6F8E6
:10B3F0005832C6ED977A1FD0BEF1040FC6F86032FE
:10B40000C6ED997A18D0BEF1050FC6F86832C6EDC0
:10B410009B7A11D0BEF1060FC6F87032C6ED9D7A48
:10B420000AD0BEF1070FC6F87832C6ED9F7A03D076
:10B43000C6F88032C6EDA17AB64B9FEDB76A93F895
:10B44000B2309FEDB67A9FEDB60AB64A07EE903A53
